:020000040800F2
:1000000000500020AD50000851510008818D0008BB
:1000100051510008515100085151000800000000E2
:100020000000000000000000000000005151000826
:1000300051510008000000005151000891E90008EA
:100040005151000851510008515100085151000808
:10005000515100085151000851510008E91C000895
:1000600051510008515100085151000851510008E8
:1000700051510008515100086DEC00085151000821
:1000800051510008515100085151000851510008C8
:10009000515100085151000851510008ED1C000851
:1000A000515100085151000851510008292D0008F4
:1000B000812D00088D2D0008992D0008E5E5000828
:1000C00049E90008E9E5000845E900085151000840
:1000D000515100085151000869EF000851510008C2
:1000E000851500085151000851510008000000001A
:1000F0000000000000000000000000000000000000
:0C01000000000000000000005FF808F1A3
:1001100010B5054C237833B9044810B10448AFF347
:1001200000800121217010BD90040020000000001B
:10013000C47C010808B5064B1BB106480649AFF35D
:1001400000800648016811B1054B03B1984708BD0E
:1001500000000000C47C0108940400208C040020EE
:100160000000000081F0004102E000BF83F0004386
:1001700030B54FEA41044FEA430594EA050F08BF42
:1001800090EA020F1FBF54EA000C55EA020C7FEA06
:10019000645C7FEA655C00F0E2804FEA5454D4EB83
:1001A0005555B8BF6D420CDD2C4480EA020281EA4D
:1001B000030382EA000083EA010180EA020281EA85
:1001C0000303362D88BF30BD11F0004F4FEA0131D7
:1001D0004FF4801C4CEA113102D0404261EB4101E6
:1001E00013F0004F4FEA03334CEA133302D052426C
:1001F00063EB430394EA050F00F0A780A4F1010428
:10020000D5F1200E0DDB02FA0EFC22FA05F2801861
:1002100041F1000103FA0EF2801843FA05F3594147
:100220000EE0A5F120050EF1200E012A03FA0EFCC6
:1002300028BF4CF0020C43FA05F3C01851EBE371F0
:1002400001F0004507D54FF0000EDCF1000C7EEB0D
:1002500000006EEB0101B1F5801F1BD3B1F5001F4B
:100260000CD349085FEA30004FEA3C0C04F101046A
:100270004FEA445212F5800F80F09A80BCF1004F93
:1002800008BF5FEA500C50F1000041EB045141EA15
:10029000050130BD5FEA4C0C404141EB010111F416
:1002A000801FA4F10104E9D191F0000F04BF0146C1
:1002B0000020B1FA81F308BF2033A3F10B03B3F19F
:1002C00020020CDA0C3208DD02F1140CC2F10C022F
:1002D00001FA0CF021FA02F10CE002F11402D8BF8D
:1002E000C2F1200C01FA02F120FA0CFCDCBF41EA59
:1002F0000C019040E41AA2BF01EB0451294330BD28
:100300006FEA04041F3C1CDA0C340EDC04F1140404
:10031000C4F1200220FA04F001FA02F340EA0300DB
:1003200021FA04F345EA030130BDC4F10C04C4F121
:10033000200220FA02F001FA04F340EA0300294601
:1003400030BD21FA04F0294630BD94F0000F83F44B
:10035000801306BF81F480110134013D4EE77FEA2E
:10036000645C18BF7FEA655C29D094EA050F08BF7A
:1003700090EA020F05D054EA000C04BF194610465B
:1003800030BD91EA030F1EBF0021002030BD5FEA9F
:10039000545C05D14000494128BF41F0004130BDC7
:1003A00014F580043CBF01F5801130BD01F000451B
:1003B00045F0FE4141F470014FF0000030BD7FEA8E
:1003C000645C1ABF194610467FEA655C1CBF0B4689
:1003D000024650EA013406BF52EA033591EA030FA0
:1003E00041F4002130BD00BF90F0000F04BF002198
:1003F000704730B54FF4806404F132044FF00005CB
:100400004FF0000150E700BF90F0000F04BF002143
:10041000704730B54FF4806404F1320410F00045A9
:1004200048BF40424FF000013EE700BF42004FEAA4
:10043000E2014FEA31014FEA02701FBF12F07F4321
:1004400093F07F4F81F06051704792F0000F14BF1E
:1004500093F07F4F704730B54FF4607401F0004562
:1004600021F0004120E700BF50EA010208BF7047B9
:1004700030B54FF000050AE050EA010208BF7047AE
:1004800030B511F0004502D5404261EB41014FF417
:10049000806404F132045FEA915C3FF4DCAE4FF01B
:1004A00003025FEADC0C18BF03325FEADC0C18BF02
:1004B000033202EBDC02C2F1200300FA03FC20FA53
:1004C00002F001FA03FE40EA0E0021FA02F11444A0
:1004D000C1E600BF70B54FF0FF0C4CF4E06C1CEAB5
:1004E00011541DBF1CEA135594EA0C0F95EA0C0F2A
:1004F00000F0DEF82C4481EA030621EA4C5123EA9D
:100500004C5350EA013518BF52EA033541F48011CB
:1005100043F4801338D0A0FB02CE4FF00005E1FB7E
:1005200002E506F00042E0FB03E54FF00006E1FBC8
:1005300003569CF0000F18BF4EF0010EA4F1FF040B
:10054000B6F5007F64F5407404D25FEA4E0E6D414B
:1005500046EB060642EAC62141EA55514FEAC5205C
:1005600040EA5E504FEACE2EB4F1FD0C88BFBCF5D8
:10057000E06F1ED8BEF1004F08BF5FEA500E50F189
:10058000000041EB045170BD06F0004646EA01014F
:1005900040EA020081EA0301B4EB5C04C2BFD4EB81
:1005A0000C0541EA045170BD41F480114FF0000E7A
:1005B000013C00F3AB8014F1360FDEBF002001F0E8
:1005C000004170BDC4F10004203C35DA0C341BDC62
:1005D00004F11404C4F1200500FA05F320FA04F034
:1005E00001FA05F240EA020001F0004221F0004168
:1005F00010EBD37021FA04F642EB06015EEA430EDB
:1006000008BF20EAD37070BDC4F10C04C4F120050A
:1006100000FA04F320FA05F001FA04F240EA0200BD
:1006200001F0004110EBD37041F100015EEA430E8E
:1006300008BF20EAD37070BDC4F1200500FA05F2AE
:100640004EEA020E20FA04F301FA05F243EA02032D
:1006500021FA04F001F0004121FA04F220EA02003C
:1006600000EBD3705EEA430E08BF20EAD37070BD82
:1006700094F0000F0FD101F00046400041EB010162
:1006800011F4801F08BF013CF7D041EA060195F044
:10069000000F18BF704703F00046520043EB0303FE
:1006A00013F4801F08BF013DF7D043EA06037047EB
:1006B00094EA0C0F0CEA135518BF95EA0C0F0CD0F6
:1006C00050EA410618BF52EA4306D1D181EA03013C
:1006D00001F000414FF0000070BD50EA410606BF36
:1006E0001046194652EA430619D094EA0C0F02D17B
:1006F00050EA013613D195EA0C0F05D152EA0336C0
:100700001CBF104619460AD181EA030101F00041DD
:1007100041F0FE4141F470014FF0000070BD41F026
:10072000FE4141F4780170BD70B54FF0FF0C4CF400
:10073000E06C1CEA11541DBF1CEA135594EA0C0F1F
:1007400095EA0C0F00F0A7F8A4EB050481EA030E6C
:1007500052EA03354FEA013100F088804FEA033353
:100760004FF0805545EA131343EA12634FEA022221
:1007700045EA111545EA10654FEA00260EF00041E2
:100780009D4208BF964244F1FD0404F5407402D234
:100790005B084FEA3202B61A65EB03055B084FEAC5
:1007A00032024FF480104FF4002CB6EB020E75EBC2
:1007B000030E22BFB61A754640EA0C005B084FEAEA
:1007C0003202B6EB020E75EB030E22BFB61A754667
:1007D00040EA5C005B084FEA3202B6EB020E75EBB2
:1007E000030E22BFB61A754640EA9C005B084FEA2A
:1007F0003202B6EB020E75EB030E22BFB61A754637
:1008000040EADC0055EA060E18D04FEA051545EA25
:1008100016754FEA06164FEAC30343EA52734FEACE
:10082000C2025FEA1C1CC0D111F4801F0BD141EA47
:1008300000014FF000004FF0004CB6E711F4801FAC
:1008400004BF01430020B4F1FD0C88BFBCF5E06F8C
:100850003FF6AFAEB5EB030C04BFB6EB020C5FEA9C
:10086000500C50F1000041EB045170BD0EF0004EF1
:100870004EEA113114EB5C04C2BFD4EB0C0541EA23
:10088000045170BD41F480114FF0000E013C90E620
:1008900045EA060E8DE60CEA135594EA0C0F08BFE4
:1008A00095EA0C0F3FF43BAF94EA0C0F0AD150EAE3
:1008B00001347FF434AF95EA0C0F7FF425AF104676
:1008C00019462CE795EA0C0F06D152EA03353FF49E
:1008D000FDAE1046194622E750EA410618BF52EA1B
:1008E00043067FF4C5AE50EA41047FF40DAF52EAEF
:1008F00043057FF4EBAE12E74FF0FF3C06E000BF8C
:100900004FF0010C02E000BF4FF0010C4DF804CD98
:100910004FEA410C7FEA6C5C4FEA430C18BF7FEA58
:100920006C5C1BD001B050EA410C0CBF52EA430C86
:1009300091EA030F02BF90EA020F0020704710F106
:10094000000F91EA030F58BF994208BF90422CBF95
:10095000D8176FEAE37040F0010070474FEA410C8E
:100960007FEA6C5C02D150EA013C07D14FEA430CAC
:100970007FEA6C5CD6D152EA033CD3D05DF8040B1D
:10098000704700BF8446104662468C46194663464F
:1009900000E000BF01B5FFF7B7FF002848BF10F126
:1009A000000F01BD4DF808EDFFF7F4FF0CBF01206B
:1009B00000205DF808FB00BF4DF808EDFFF7EAFFE7
:1009C00034BF012000205DF808FB00BF4DF808EDA2
:1009D000FFF7E0FF94BF012000205DF808FB00BF97
:1009E0004DF808EDFFF7CEFF94BF012000205DF821
:1009F00008FB00BF4DF808EDFFF7C4FF34BF01202E
:100A000000205DF808FB00BF4A0011D212F5001269
:100A100011D20DD56FF47873B3EB62520ED44FEA56
:100A2000C12343F0004343EA505323FA02F07047D6
:100A30004FF00000704750EA013002D14FF0FF3014
:100A400070474FF0000070474FEA4102B2F1E043B7
:100A500024BFB3F5001CDCF1FE5C0DD901F0004CA5
:100A60004FEAC0024CEA5070B2F1004F40EB8300F5
:100A700008BF20F00100704711F0804F21D113F121
:100A80003872BCBF01F00040704741F480114FEA5A
:100A90005252C2F11802C2F1200C10FA0CF320FAE3
:100AA00002F018BF40F001004FEAC1234FEAD32300
:100AB00003FA0CFC40EA0C0023FA02F34FEA43036A
:100AC000CCE77FEA625307D150EA01331EBF4FF0F3
:100AD000FE4040F44000704701F0004040F0FE400E
:100AE00040F40000704700BF80F0004002E000BF0B
:100AF00081F0004142001FBF5FEA410392EA030F09
:100B00007FEA226C7FEA236C6AD04FEA1262D2EB52
:100B10001363C1BFD218414048404140B8BF5B4257
:100B2000192B88BF704710F0004F40F4000020F0F0
:100B30007F4018BF404211F0004F41F4000121F006
:100B40007F4118BF494292EA030F3FD0A2F1010250
:100B500041FA03FC10EB0C00C3F1200301FA03F18E
:100B600000F0004302D5494260EB4000B0F5000FB1
:100B700013D3B0F1807F06D340084FEA310102F170
:100B80000102FE2A51D2B1F1004F40EBC25008BF22
:100B900020F0010040EA03007047490040EB0000EC
:100BA00010F4000FA2F10102EDD1B0FA80FCACF11B
:100BB000080CB2EB0C0200FA0CF0AABF00EBC2501A
:100BC00052421843BCBFD0401843704792F0000F08
:100BD00081F4000106BF80F400000132013BB5E75B
:100BE0004FEA41037FEA226C18BF7FEA236C21D0D1
:100BF00092EA030F04D092F0000F08BF0846704736
:100C000090EA010F1CBF0020704712F07F4F04D103
:100C1000400028BF40F00040704712F100723CBF16
:100C200000F50000704700F0004343F0FE4040F440
:100C3000000070477FEA226216BF08467FEA2363FE
:100C40000146420206BF5FEA412390EA010F40F4E9
:100C5000800070474FF0000304E000BF10F0004335
:100C600048BF40425FEA000C08BF704743F096431C
:100C700001464FF000001CE050EA010208BF704737
:100C80004FF000030AE000BF50EA010208BF7047BE
:100C900011F0004302D5404261EB41015FEA010CD3
:100CA00002BF84460146002043F0B64308BFA3F1CB
:100CB0008053A3F50003BCFA8CF2083AA3EBC253AD
:100CC00010DB01FA02FC634400FA02FCC2F12002CC
:100CD000BCF1004F20FA02F243EB020008BF20F003
:100CE0000100704702F1200201FA02FCC2F1200269
:100CF00050EA4C0021FA02F243EB020008BF20EA5E
:100D0000DC7070474FF0FF0C1CEAD0521EBF1CEA8B
:100D1000D15392EA0C0F93EA0C0F6FD01A4480EA79
:100D2000010C400218BF5FEA41211ED04FF0006362
:100D300043EA501043EA5111A0FB01310CF000408E
:100D4000B1F5000F3EBF490041EAD3715B0040EAB4
:100D5000010062F17F02FD2A1DD8B3F1004F40EB84
:100D6000C25008BF20F00100704790F0000F0CF057
:100D7000004C08BF49024CEA502040EA51207F3A1B
:100D8000C2BFD2F1FF0340EAC250704740F40000F6
:100D90004FF00003013A5DDC12F1190FDCBF00F0E7
:100DA00000407047C2F10002410021FA02F1C2F195
:100DB000200200FA02FC5FEA310040F1000053EA31
:100DC0004C0308BF20EADC70704792F0000F00F07F
:100DD000004C02BF400010F4000F013AF9D040EA85
:100DE0000C0093F0000F01F0004C02BF490011F419
:100DF000000F013BF9D041EA0C018FE70CEAD15317
:100E000092EA0C0F18BF93EA0C0F0AD030F0004C96
:100E100018BF31F0004CD8D180EA010000F000404A
:100E2000704790F0000F17BF90F0004F084691F008
:100E3000000F91F0004F14D092EA0C0F01D1420242
:100E40000FD193EA0C0F03D14B0218BF084608D10B
:100E500080EA010000F0004040F0FE4040F4000055
:100E6000704740F0FE4040F4400070474FF0FF0CE8
:100E70001CEAD0521EBF1CEAD15392EA0C0F93EA2F
:100E80000C0F69D0A2EB030280EA010C49024FEA81
:100E9000402037D04FF0805343EA111143EA10133A
:100EA0000CF000408B4238BF5B0042F17D024FF4F2
:100EB000000C8B4224BF5B1A40EA0C00B3EB510FCD
:100EC00024BFA3EB510340EA5C00B3EB910F24BFB6
:100ED000A3EB910340EA9C00B3EBD10F24BFA3EB3B
:100EE000D10340EADC001B0118BF5FEA1C1CE0D103
:100EF000FD2A3FF650AF8B4240EBC25008BF20F0B6
:100F0000010070470CF0004C4CEA50207F32C2BF09
:100F1000D2F1FF0340EAC250704740F400004FF0A6
:100F20000003013A37E792F0000F00F0004C02BFD7
:100F3000400010F4000F013AF9D040EA0C0093F0A1
:100F4000000F01F0004C02BF490011F4000F013BFB
:100F5000F9D041EA0C0195E70CEAD15392EA0C0F63
:100F600008D142027FF47DAF93EA0C0F7FF470AF9B
:100F7000084676E793EA0C0F04D14B023FF44CAFDE
:100F800008466EE730F0004C18BF31F0004CCAD173
:100F900030F000427FF45CAF31F000437FF43CAFAF
:100FA0005FE700BF4FF0FF3C06E000BF4FF0010CD1
:100FB00002E000BF4FF0010C4DF804CD4FEA4002B3
:100FC0004FEA41037FEA226C18BF7FEA236C11D0FD
:100FD00001B052EA530C18BF90EA010F58BFB2EBB0
:100FE000030088BFC81738BF6FEAE17018BF40F030
:100FF000010070477FEA226C02D15FEA402C05D1E4
:101000007FEA236CE4D15FEA412CE1D05DF8040B68
:10101000704700BF844608466146FFE70FB5FFF7FB
:10102000C9FF002848BF10F1000F0FBD4DF808EDB3
:10103000FFF7F4FF0CBF012000205DF808FB00BFA4
:101040004DF808EDFFF7EAFF34BF012000205DF8FE
:1010500008FB00BF4DF808EDFFF7E0FF94BF01204B
:1010600000205DF808FB00BF4DF808EDFFF7D2FF48
:1010700094BF012000205DF808FB00BF4DF808ED8B
:10108000FFF7C8FF34BF012000205DF808FB00BF58
:101090004FEA4002B2F1FE4F0FD34FF09E03B3EB85
:1010A00012620DD94FEA002343F0004310F0004FC5
:1010B00023FA02F018BF404270474FF0000070471B
:1010C00012F1610F01D1420205D110F0004008BFBA
:1010D0006FF0004070474FF00000704742000ED2A2
:1010E000B2F1FE4F0BD34FF09E03B3EB126209D463
:1010F0004FEA002343F0004323FA02F070474FF019
:101100000000704712F1610F01D1420202D14FF08D
:10111000FF3070474FF00000704700BF10B500214E
:101120000446FFF78DFF20B92046BDE8104000F0CF
:1011300009B804F1004000F005F8404261EB4101BC
:1011400010BD00BFD0B5FFF771F900230022C3F630
:10115000F05306460F46FFF7BDF9FFF755FC04466E
:10116000FFF742F900230022C4F2F013FFF7B2F9AF
:1011700002460B4630463946FEF7F8FFFFF744FCBF
:101180000022024310462146D0BD00BF2DE9F041A8
:10119000047890B000340546334818BF01240FF09E
:1011A000EFF9324B00260093314BB44201930CBF50
:1011B0002346802305934FF4807306934FF4806396
:1011C0000CBF4FF001084FF002080793202308934B
:1011D00025484FF40053694609930296CDF80C80D8
:1011E00004960A960FF04AFA1F4801210FF064FA9C
:1011F00001274FF460231F480BA90D930B968DF820
:1012000030408DF831700E968DF83C800FF018F953
:10121000184804213A4603230FF063F92CB12978CA
:101220001448022203230FF05CF9124801210FF049
:1012300034F9104801210FF027F90E480FF036F964
:101240000C480FF038F90028FAD10A480FF037F9A6
:1012500008480FF039F90028FAD1064801210FF0AB
:1012600037F910B0BDE8F081080002404C2401407D
:10127000AC04002000240140024B33F8100080B27F
:10128000704700BFAC040020704713B50622044627
:101290006B46532032210DF045FA9DF801209DF850
:1012A000003043EA022323809DF803209DF802309A
:1012B00043EA022363809DF805209DF8043043EA49
:1012C0000223A3801CBD08B52D21082253200DF058
:1012D000E5FA31210A2253200DF0E0FA53202C21A7
:1012E0000A22BDE808400DF0D9BA000037B50F4B0F
:1012F00000241A680E4B05469A428DF8074013D019
:101300005320214601220DF107030DF00BFA60B1C5
:101310009DF80730E52B07D1064B01202B60064BCB
:101320006B60064BAB6000E020463EBD3C000020F9
:10133000001BB700C71200088B12000889120008B2
:101340002DE9F84F6A4C6B4B18886389C01A2389C2
:101350005843FFF783FC4FF06051FFF7D3FC05467D
:10136000B4F91200C002FFF779FC0646B4F9140084
:10137000FFF774FC01462846FFF7BCFB01463046E8
:10138000FFF774FD01462846FFF7B4FB5A490546AE
:10139000FFF7B8FC594B5A4918602846FFF7A8FBDD
:1013A00005462946FFF7AEFC4FF06651FFF7AAFC51
:1013B0000646E088FFF74EFC0746B4F90400FFF745
:1013C0004DFC01462846FFF79DFC4FF06451FFF7A6
:1013D00099FC8346B4F90C00FFF740FC0146304607
:1013E000FFF790FC4FF05E51FFF78CFC014658462A
:1013F000FFF780FB4FF07A51FFF784FC4FF08E41EE
:10140000FFF778FB01463846FFF77CFC4FF0605150
:10141000FFF778FC0021B4F80E90B4F80280B4F81D
:1014200000A001270446FFF701FE00B1002717F0D6
:10143000FF0F5AD0334B1868FFF70CFC07460FFA22
:101440008AF0FFF70BFC4FF08241FFF75BFC82460E
:101450000FFA89F0FFF702FC01463046FFF752FC15
:1014600006460FFA88F0FFF7F9FB01462846FFF71A
:1014700049FC01463046FFF73DFB4FF06A51FFF74C
:1014800041FC01465046FFF735FB01463846FFF761
:101490002FFB1D49FFF736FC2146FFF7E7FC1B49F0
:1014A00020F00040FFF72EFC4FF06E510446FFF78E
:1014B00029FC0146FFF726FC1549FFF723FC1549D7
:1014C00005462046FFF71EFC01462846FFF712FBA3
:1014D0001149FFF70FFB4FF07651FFF713FC014660
:1014E0002046FFF707FBBDE8F88F0020BDE8F88F26
:1014F000B0040020D2040020CDCCCC3BFC1A00204C
:1015000000007A45CC0400200000C8420000FA42E6
:1015100000E03D3D00E8E5BD00F06C4507B5032265
:1015200001AB7720F6210DF0FDF89DF805209DF820
:101530000430120242EA03429DF806301A43024B7D
:1015400052091A600EBD00BFCC04002007B502226C
:1015500001AB7720F6210DF0E5F89DF805309DF8F8
:10156000042043EA0222014B1A800EBDD20400205F
:10157000F42177200A460DF091B97720F4212E222C
:101580000DF08CB908B54FF480400FF0F1F8012848
:1015900005D14FF48040BDE808400FF0F7B808BD12
:1015A0002DE9F0476C4B8CB01A686C4B05469A429B
:1015B00000F0CB80DFF8C4A19AF80090B9F1000FD9
:1015C00040F0C580664F022610234FF4005838467D
:1015D00009A94FF480448DF827608DF82630ADF8C6
:1015E00024800CF01FFE0423384609A98DF826300C
:1015F000ADF824400CF016FE0E213046C7F81080DE
:101600000CF04CFE0126082307A807948DF8213022
:101610008DF820908DF822600FF06EF828238DF859
:1016200028300AA80F238DF829308DF82A308DF83C
:101630002B600EF0D3FE14200DF0DDF97720D021C1
:101640000DF12F0332460DF06DF89DF82F30454C0B
:10165000552BE37575D1D12132460DF12F0377203B
:101660000DF060F89DF82F30772003F00F021B0972
:1016700022766376162201ABAA210DF053F89DF86D
:1016800004209DF80530304643EA022323809DF86C
:1016900006209DF8073043EA022363809DF8082066
:1016A0009DF8093043EA0223A3809DF80A209DF8A3
:1016B0000B3043EA0223E3809DF80C209DF80D30A7
:1016C00043EA022323819DF80E209DF80F3043EA60
:1016D000022363819DF810209DF8113043EA022314
:1016E000A3819DF812209DF8133043EA0223E38181
:1016F0009DF814209DF8153043EA022323829DF8BB
:1017000016209DF8173043EA022363829DF81820C3
:101710009DF8193043EA0223A38241F294138AF818
:1017200000602B8045F2E4736B800F4B2E71AB6031
:101730000E4BEB600E4B2B610E4B6B610E4BAB6196
:1017400006E0C7F81480484602E0002000E00120CF
:101750000CB0BDE8F08700BF3C000020001BB700C4
:1017600000100140B00400207B1500084D15000852
:10177000711500081D15000841130008D004002051
:101780002DE9F34D4E494F4B48891B688C89000267
:10179000181AA4FB0023C71704FB0733D60D46EA2B
:1017A00043268B884FF0000B4FEA034A0B8906F55E
:1017B000FA68A3FB004503FB0755E20942EA4562CC
:1017C000EB111AEB02044BEB03054B88CDE9004506
:1017D0004FEAC33ACB884FF0000BA3FB004503FB55
:1017E0000755220A42EA05622B121AEB020A4BEB5A
:1017F000030BB8F5FA6F33DA80FB0001C50F3046F2
:1018000045EA4105FFF72AFA0146FFF77BFA2E4920
:101810000746FFF777FA2D4904463846FFF772FA74
:101820002B4B074698451EDA06F55A6606F10C0062
:10183000FFF714FA0146FFF765FA26490646FFF757
:1018400061FA01462046FFF755F923490446304620
:10185000FFF758FA01463846FFF74CF9074602E011
:1018600000273C460025C5EB0800FFF7F7F91B49A8
:10187000FFF748FA1A4B18601A4B38461D68FFF7F5
:101880004DFCBAEB00006BEB0101A5FB002305FB4F
:101890000133560D20465F1546EAC326FFF73EFC8E
:1018A000DDE90023101A63EB0101361A67EB01072B
:1018B000F00B40EA4740F913FFF7E6F9BDE8FC8D6D
:1018C000DC040020D8040020000020400000A03FDD
:1018D00024FAFFFF0000E0400000B0400AD7233C9C
:1018E000FC1A0020D404002007B5772001AB0021AA
:1018F00003220CF017FF9DF805009DF8043000024C
:1019000040EA03409DF8063018430EBD08B5FFF7C6
:10191000EBFF08B1014B186008BD00BFD4040020E4
:1019200008B5FFF7E1FF08B1014B186008BD00BF23
:10193000D80400207720482101220CF0AFBF772087
:10194000582101220CF0AABF4E4B2DE9F3411A6831
:101950004D4B04469A420FD04C4D02234FF4005693
:101960008DF80330284610236946ADF800608DF8E5
:1019700002300CF057FC6E617720A02101220DF19E
:1019800007030CF0CFFE002879D0414E00256420DB
:101990000DF031F81E21012277200CF07FFF4FF06F
:1019A000000864200DF027F88DF807801CE00A205D
:1019B0008DF800808DF801800DF01DF879B250315E
:1019C0004900022200ABC9B277200CF0ABFE9DF8B3
:1019D00000209DF8013043EA022326F817309DF8D5
:1019E000073001338DF807309DF80770072FDED9D7
:1019F00001353220EDB20CF0FEFF0A2D2BD0F38919
:101A0000002203F00F0723F0FF03F3811146134672
:101A1000C2F3460036F8100012F0010F40EA01014F
:101A20001ABFC0B2434083EA1023082013F4004FCA
:101A30004FEA43031CBF83F440539BB20138C0B24A
:101A40009BB20028F2D10132102AE1D1B7EB133F4B
:101A50009DD100299BD042F2503323806380022322
:101A600023710C4BB5F10A00A3600B4B18BF01208A
:101A7000E3600A4B23610A4B63610A4BA361BDE833
:101A8000FC8100BF3C000020001BB700001001409B
:101A9000DC0400203F19000821190008351900084E
:101AA0000D1900088117000808B50CF079FF094BE3
:101AB0001A682AB11B68C01A074B984203D808BDA0
:101AC000064B984205D9082005F0AEFB044B0022D6
:101AD0001A7008BDF4040020E0930400002D3101C9
:101AE0000C0B002013B504460CF074FF154B1A685C
:101AF0006432904224D31860FFF7D6FF00200CF028
:101B00002BFF7020FF21022201AB0CF00BFE88B1ED
:101B10009DF804209DF8053043EA02231BB22360A0
:101B20000CF03EFF084BFF211860512270200CF092
:101B3000B5FE00E0206001200CF00EFF012000E067
:101B400000201CBDEC040020F404002013B5044662
:101B50000CF040FF124B1A68463290421ED31860B8
:101B6000FFF7A2FF022170200A4601AB0CF0DAFD5C
:101B700088B19DF804209DF8053043EA02231BB28A
:101B800023600CF00DFF074B0021186051227020DC
:101B90000CF084FE00E02060012000E000201CBD6D
:101BA000EC040020F404002010B504460CF012FFF1
:101BB000084B1A68643290420AD31860064B1A68C0
:101BC0003A2392FBF3F32360FFF76EFF012010BD71
:101BD000002010BDEC0400200805002013B50446C9
:101BE0000CF0F8FE114B1A68463290421CD3186074
:101BF000FFF75AFF20203221022201AB0CF092FDA8
:101C000078B19DF805209DF8043043EA02231BB209
:101C10003A2293FBF2F323600CF0C2FE044B1860EF
:101C200000E02060012000E000201CBDEC0400204A
:101C3000F404002038B504460CF0CCFE0D4B1A68B5
:101C40003C32904213D318600B4B0C4D1A683A2368
:101C500092FBF3F323602B88094C0B2023610CF0DB
:101C6000BFFE2B886361FFF71FFF012038BD0020F6
:101C700038BD00BFEC04002008050020040500204A
:101C8000000C014008B5114B18680EF07FFD0CF0F8
:101C900087FE0F4B0F4A10491860926809881B682D
:101CA00011420E4A01D0136008BD11680C4A5B1A3C
:101CB000AE2B04D90B480088834200D201B900231F
:101CC0001360064B00221A6008BD00BF000500200B
:101CD000F4040020000C0140F2040020F80400206D
:101CE00008050020F0040020FFF7CCBFFFF7CABFB3
:101CF00030B57D4B4FF230221A807C4A85B092F885
:101D0000A821062A63D8DFE802F004213807243C22
:101D10004C0045F6C0521A80754B1B78042B00F21C
:101D2000E180102005F08EFA002840F0DB80714B36
:101D30004FF480721A80704A4FF4007313806F4A18
:101D400013606F4B09221A70172213E045F6C05238
:101D50001A80012005F076FA002800F0C380654A59
:101D600001236549138002220A8064490A60644A9B
:101D700013700722634B1A7029E0202032210222BF
:101D80000AE00021512270200CF088FD46200CF062
:101D900032FE022170200A4603AB0CF0C3FC04465D
:101DA00050E000200CF0D8FDFF21512270200CF0F3
:101DB00075FD46200CF01FFE7020FF21022203ABB0
:101DC0000CF0B0FC044601200CF0C6FD3AE0494B93
:101DD00010241B884C48ADF8083002A902238DF866
:101DE0000A408DF80B300CF01DFA434B46481B8817
:101DF00002A9ADF8083004238DF80A300CF012FA6D
:101E00003F4B3E4D197801200CF048FA28680EF03F
:101E1000BDFC2B688DF80540009301240023684623
:101E20008DF804308DF806400EF066FC354B374ACD
:101E30001B7859B203F01F0304FA03F4490942F86E
:101E4000214001E0002C4DD0284B93F8A901B3F8B4
:101E5000AA21904204D3322283F8A92164221FE0F0
:101E600093F8A81106291DD8012449B204FA01F1FA
:101E700011F0580F09D188060DD4490712D0B2F5D8
:101E8000C87F28BF4FF4C8720AE01E2838BF1E2042
:101E900083F8A90106E0B2F5167F28BF4FF4167249
:101EA000A3F8AA21114B93F8A831062B10D8DFE82C
:101EB00003F004040608080A0C00154A06E0154A57
:101EC00004E0154A02E0154A00E0154A154B1A6075
:101ED000082005F0A1F9144B4FF0FF321A60134BA4
:101EE00000221A7005B030BDF0040020080F002059
:101EF000CA1B002004050020F20400200005002079
:101F0000FD040020FC040020000C014000E100E082
:101F1000351C0008DD1B0008A91B00084D1B00082C
:101F2000E51A00080C050020941A00200C0B002074
:101F300007B5034B01A81B68984700B101980EBD77
:101F40000C05002007B51E200A21032201AB0CF06E
:101F5000E9FB80B19DF80430482B0BD19DF805308A
:101F6000342B07D19DF80600A0F13303584240EB13
:101F7000030000E000200EBD13B506220446032135
:101F80006B461E200CF0CEFB9DF801309DF8002022
:101F90009DF8021043EA02229DF803309DF80400E8
:101FA00043EA01239DF80510228041EA00210848F8
:101FB000A380618090F9760020B1022021460AF0CA
:101FC0004FFD04E052425B4221806280A3801CBD31
:101FD000080F00202DE9F04F00238BB0774A0193C2
:101FE0000293039304AB074607CA83E80700744BC8
:101FF00001221A70734B744A1B6893420CD14FF440
:102000008053ADF8243002238DF8273004238DF857
:1020100026306E4809A908E06D4A934207D10AA903
:102020004FF480436B4821F8043D0CF0FBF864202A
:102030000CF0E1FC00211E2011220CF02FFC664B5D
:102040001E2093F86530012123B160220CF026FC9C
:10205000624E03E020220CF021FC614E0524642036
:10206000013C0CF0C8FCE4B207A8FFF785FF002C88
:10207000F5D10A2440F2FE75022101221E200CF047
:102080000DFC64200CF0B7FC07A8FFF775FF4C4B64
:102090000DF11A0A93F800904FF000083AF9020F78
:1020A0000DF1040B80EAE073A3EBE073AB42C8BF11
:1020B0004FF00009FEF7D2FD014658F80B00FEF77D
:1020C00019FD48F80B0008F10408B8F10C0FE5D130
:1020D0003B4B013C83F800903C4BE4B2DA6882F061
:1020E0001002DA60002CC7D121461E2012220CF00B
:1020F000D5FB0A2440F2FE78022101221E200CF0BA
:10210000CDFB64200CF077FC07A8FFF735FF2C4BC4
:102110000DF11A0A93F8009000253AF9020F0DF11B
:10212000040B80EAE073A3EBE0734345C8BF4FF0B4
:102130000009FEF793FD014655F80B00FEF7D8FCA9
:1021400045F80B0004350C2DE7D11D4D1F4B85F8CC
:102150000090DA68013C82F01002E4B2DA60002CF0
:10216000CAD1214678221E200CF098FB01212022A2
:102170001E200CF093FB022122461E200CF08EFB49
:1021800064200CF038FC95F800804FF07E55B8F1D3
:10219000000F0CD004ABE1583046FEF7B3FD01ABA5
:1021A000E158FEF763FE20F00040385100E03D5159
:1021B00004340C2CEBD10BB0BDE8F08F6444010863
:1021C000DC0E00203C00002000127A00000C0140D0
:1021D000001BB70000100140080F002000404E46D1
:1021E000002080461FB5384C2378BBB97A238DF880
:1021F0000430364B36481968FEF77AFC4FF07C51B4
:10220000FEF780FDFEF76AFF01AB8DF80500FF21A8
:102210006D2002220CF0E4FA012353E0012B3BD1A4
:102220002C4C792320688DF80430FEF731FF6FF4D1
:10223000637300B2984209DB40F28D33984207DCA9
:102240000A2390FBF3F35A33DBB202E0002300E0F1
:10225000B42360688DF80530FEF71AFF6FF46373DE
:1022600000B2984209DB40F28D33984207DC0A2322
:1022700090FBF3F35A33DBB202E0002300E0B42317
:102280008DF80630032201AB6D20FF210CF0A8FA77
:102290000D4B02221A7016E0022B14D164238DF824
:1022A000043001238DF805300B4B5B78003318BFE9
:1022B00001238DF806306D2001ABFF2103220CF0C5
:1022C0008FFA002323701FBD10050020940A002000
:1022D00000003443300900201A1B002007B56B238F
:1022E0008DF804300A238DF805308DF806306D2006
:1022F000FF21032201AB0CF073FA0EBD03885B4291
:10230000038043885B424380704713B5062204462E
:102310006B461C2001210CF005FA9DF800209DF869
:10232000013043EA022343F30B139DF8022023807C
:102330009DF8033043EA022343F30B1363809DF8B7
:1023400004209DF8053043EA022343F30B13A380D6
:102350001CBD000013B52023ADF8043004230DEBA1
:102360000301022417488DF806308DF807400BF062
:1023700059FF2A2100221C200CF090FA22460E213F
:102380001C200CF08BFA0F2103221C200CF086FA83
:102390002B2112221C200CF081FA22462C211C2019
:1023A0000CF07CFA2D2101221C200CF077FA2E2152
:1023B00000221C200CF072FA2A2105221C200CF0AD
:1023C0006DFA1CBD0008014037B5104B00241A6897
:1023D0000F4B05469A428DF8074015D01C200D2161
:1023E00001220DF107030CF09DF970B19DF8073043
:1023F0002A2B01D01A2B07D1064B01202B60064B4C
:102400006B60064BAB6000E020463EBD3C00002008
:10241000001BB700552300080B230008FD2200080D
:1024200083885B428380704713B502221B210446D8
:1024300001AB68200CF076F99DF805309DF804009A
:1024400043EA002000B2FEF709FC0549FEF752FB03
:102450000449FEF70BFD0449FEF74CFB20601CBD50
:1024600000404E4600008C4300000C4213B506228B
:1024700004466B4668201D210CF054F99DF800209D
:102480009DF8013043EA022323809DF802209DF845
:10249000033043EA022363809DF804209DF8053051
:1024A00043EA0223A3801CBD192008B50CF0A3FA4F
:1024B0006820152100220CF0F1F910B903200CF06E
:1024C000D7FA0C4B16211A78682042F018020CF04B
:1024D000E5F91721002268200CF0E0F93D210122E6
:1024E00068200CF0DBF968203E210122BDE808409D
:1024F0000CF0D4B90000002010B5044619200CF0EF
:102500007AFA6820152100220CF0C8F940B1054B79
:1025100001202360044B6360044BA360044BE36021
:1025200010BD00BFA92400086D2400082124000864
:1025300029240008164AB2F8803011462A2B17D0F9
:10254000144A04D80A2B19D0142B0ED114E0BC2B3A
:1025500007D0B3F5807F02D0622B06D103E00023C1
:102560000DE001230BE0022309E02A23A1F88030CB
:10257000084B03221A7003E0042300E005231370C4
:10258000044B68201A78162142F018020CF086B924
:10259000080F0020000000207047038842885B423B
:1025A00002804380704783885B42838070470000CD
:1025B00013B502224121044601AB68200CF0B2F8A9
:1025C0009DF805309DF8040043EA002000B2FEF7B4
:1025D00045FB0449FEF74AFC0349FEF78BFA2060ED
:1025E0001CBD00BF0000AA43B81E124213B506224C
:1025F00004466B46682043210CF094F89DF80020B7
:102600009DF8013043EA022323809DF802209DF8C3
:10261000033043EA022363809DF804209DF80530CF
:1026200043EA0223A3801CBD13B5062204466B4671
:1026300068203B210CF076F89DF800209DF80130D1
:1026400043EA022323809DF802209DF8033043EAE9
:10265000022363809DF804209DF8053043EA02239D
:10266000A3801CBD07B54FF40053ADF8043002231E
:102670008DF8073004238DF806302D4B2D4A1B684A
:10268000934201D12C4803E02C4A934203D12C48B9
:1026900001A90BF0C7FD6B21802268200CF0FEF829
:1026A00005200CF0A8F91921002268200CF0F6F89A
:1026B0006B21032268200CF0F1F8022268203721F8
:1026C0000CF0ECF81F4AB2F880302A2B1FD006D845
:1026D0000A2B18D0142B14D0052B0ED115E0BC2BCF
:1026E00007D0B3F5807F02D0622B06D103E0002231
:1026F0000EE001220CE002220AE02A23A2F8803038
:1027000005E0042204E0052202E0062200E00322A4
:102710001A2168200CF0C2F81B21182268200CF046
:10272000BDF868201C2110220CF0B8F80EBD00BFC7
:102730003C00002000127A00000C0140001BB70092
:1027400000100140080F002037B5054623200C4635
:102750000CF051F96820752101220DF107030BF0EF
:10276000E1FFA0B19DF80730682B0FD1084B012085
:102770002B60084B6B60084BAB60084B2360084B29
:102780006360084BA360084BE36000E000203EBD9F
:1027900099250008292600089B25000865260008C1
:1027A000ED250008A7250008B12500087FB50546DE
:1027B00014460E460E223B216B4668200BF0B2FFFA
:1027C0009DF800209DF801309DF8060043EA0223A1
:1027D0002B809DF802209DF8033043EA02236B8092
:1027E0009DF804209DF8053043EA0223AB809DF854
:1027F000073043EA002000B2FEF730FA0E49FEF738
:1028000035FB0E49FEF776F99DF808209DF8093052
:10281000306043EA022323809DF80A209DF80B30A4
:1028200043EA022363809DF80C209DF80D3043EAB3
:102830000223A3807FBD00BF0000AA43B81E12423E
:1028400003885B42038083885B428380704713B5B3
:10285000062204466B46682028210BF063FF9DF892
:1028600000209DF8013043EA022363809DF8022096
:102870009DF8033043EA022323809DF804209DF84D
:10288000053043EA0223A3801CBD0000642008B584
:102890000CF0B1F868202321F0220BF0FFFF10B9F3
:1028A00003200CF0E5F805200CF0A5F8044B682097
:1028B0001A78202142F00F02BDE808400BF0EEBF6D
:1028C0001105002013B5044619200CF094F8682077
:1028D0000F2101220DF107030BF024FF9DF80730B3
:1028E000D32B07D1044B01202360044B6360044BBE
:1028F000A36000E000201CBD8D2800084F280008C0
:1029000041280008124AB2F880301146362B0ED00A
:10291000104A02D8202B07D104E04E2B0BD05D2BA0
:1029200002D10AE0002309E03623A1F88030094BE8
:1029300040221A7003E0802300E0C0231370054B8F
:1029400068201A78202142F00F020BF0A7BF00BFC9
:10295000080F00201105002030B585B0044601A8FD
:102960000D460EF0B5FA0B4B013D1A680A4B204696
:10297000B2FBF3F3013BADF8043001A90023ADF83D
:102980000850ADF80A30ADF806300EF059F905B030
:1029900030BD00BF4000002040420F007FB504461C
:1029A00001A80D4616460EF0A6FA0123ADF8083030
:1029B0002046002301A9ADF80450ADF80660ADF83B
:1029C0000A30ADF80C300EF015FB7FBD2DE9F74F46
:1029D0002C4B1427474300011C581D188A462046DB
:1029E0004FF6FF719346FFF7B7FFAB686868282280
:1029F000ADF80030694602238DF8033005F108096F
:102A00008DF802200BF00EFC2D7B0022204629467B
:102A1000FFF7C4FF204601210EF075FA99F8053042
:102A2000DFF864808DF8043000238DF8053008EB62
:102A30000706012301A88DF806308DF807300DF048
:102A4000CDFC48F807A086F80AB00C2D16D8DFE8B0
:102A500005F0071515150A1515150D151515100096
:102A60002046022107E02046042104E020460821F8
:102A700001E02046102101220EF05FFA3046BDE849
:102A8000FE8F00BFA044010828050020114A12480B
:102A900013881180C91A038089B240F68C239942A9
:102AA0000E4B02D900221A707047A1F53A72073A0C
:102AB00092B240F2DA50824205D81A78092A9CBFB5
:102AC000074820F812101A7801321A70054B0022BC
:102AD0001A8070478C060020420600202605002040
:102AE00012050020620B0020154B142210B502FBCA
:102AF000003202F10803DC7864B901229980DA70AF
:102B0000104B00011A18117B18580222BDE8104022
:102B1000FFF744BF9C88D980091B89B29C78118239
:102B2000094A000122F814100024DC70054B1A1821
:102B3000117B18582246FFF731FF044B1C8010BD53
:102B400028050020A044010812050020620B002087
:102B500070B50D46022104460EF0F3FA0128204616
:102B60000BD102210EF0F8FA14226BB25343254A1E
:102B70002046D6580EF0D8FA27E004210EF0E1FAEC
:102B800001280ED101352046EDB204210EF0E4FA01
:102B900014226BB253431B4A2046D6580EF0C7FA94
:102BA00013E0082120460EF0CCFA012811D102359D
:102BB0002046EDB208210EF0CFFA14226BB2534337
:102BC000104A2046D6580EF0B5FA01462846B047BE
:102BD00070BD102120460EF0B4FA012810D1033543
:102BE0001021EDB220460EF0B7FA14226BB2534317
:102BF000044A2046D6580EF0A0FA01462846B047AF
:102C000070BD00BF280500202DE9F047444BDFF8D8
:102C10001481142505FB0035030158F8034086B0E4
:102C200008EB030607462046FFF796FEB368706878
:102C300018224FF0020905A9ADF814308DF81620BE
:102C40008DF817900BF0EEFA01A806F1080A367B12
:102C50000EF047F97023ADF804300123ADF80630CB
:102C60000023ADF808304FF47A73ADF80A304FF412
:102C70008073ADF80C90ADF810300C2E2BD8DFE837
:102C800006F0072A2A2A102A2A2A192A2A2A220082
:102C9000204601A90EF01EF8204608210EF056F934
:102CA00019E0204601A90EF059F8204608210EF03F
:102CB00055F910E0204601A90EF094F820460821AD
:102CC0000EF056F907E0204601A90EF0CDF8204697
:102CD00008210EF055F908EB071898F80E301BB1D3
:102CE000204601210EF01BF9204601210EF00BF9C0
:102CF0000C2E10D8DFE806F0070F0F0F090F0F0F8B
:102D00000B0F0F0F0D00343404E0383402E03C3474
:102D100000E040346C60284606B0BDE8F08700BF94
:102D200028050020A0440108022110B512480EF029
:102D300008FA012810480CD102210EF00DFA0F4BB1
:102D40000D48D3F8A0400EF0EFF901460820A04747
:102D500010BD10210EF0F5F901280CD11021064804
:102D60000EF0FAF9054B0448D3F8B4400EF0E5F93B
:102D700001460920A04710BD002C01402805002075
:102D80004FF080400021FFF7E3BE0000014804211E
:102D9000FFF7DEBE0004004001480A21FFF7D8BE5D
:102DA000000800402DE9F84F4278437A0446002B92
:102DB00014BF022300231AB1002B14BF03230123E5
:102DC000434ADFF8288152F82390424FDFF820A1D0
:102DD000002519F80530FF2B76D0A27803F00F00FC
:102DE0001AB1821ED2B2012A6BD9A27A0AB18242EA
:102DF00067D0E2780AB1042863D022790AB10528A5
:102E00005FD0A27922B1A0F10C02D2B2012A58D926
:102E100062791AB1821FD2B2012A52D903F0F003AB
:102E200013F0300F03D02278002A08BF0023627A03
:102E30006AB9E2792AB1A0F10802D2B2012A98BF98
:102E40008023227A1AB1032801D907282CD9202BF4
:102E500010D002D8102B34D104E0402B13D0802B9B
:102E60002FD121E000221C49FFF7B0FD1B4B0822A7
:102E70001A7026E0194E1A493278FFF7A7FD337809
:102E8000013333701DE0A189164E97FBF1F189B231
:102E900096F800B0FFF7B8FE134B43F82B000BF188
:102EA000010B86F800B00CE0E18998F8006097FB10
:102EB000F1F189B2FFF7A8FE4AF82600013688F83A
:102EC000006001350E2D84D10020BDE8F88F00BFD1
:102ED0008045010840420F008D2A0008400600206E
:102EE000E92A000868060020480600204406002061
:102EF0006C060020044B1B78834204D9034B53F823
:102F000020305B6819807047680600204806002062
:102F1000044B1B78834204D9034B53F820305B6881
:102F200019807047440600206C060020014B33F8DE
:102F3000100070471205002037B50C4B0C4D93F86C
:102F400093310C4C002B0CBF402380232B80ADF819
:102F5000043002238DF807302046102301A98DF894
:102F600006300BF05FF92B8863613EBD080F00202F
:102F70008E06002000080140E8B1114B11491A7873
:102F800009780132D2B291421A7018D100221A7017
:102F90000D4A1378591C1170C3F34403012202FA3D
:102FA00003F30A4A12681342094A0A4B128814BFF3
:102FB0001A615A617047064B1A88064B5A6170476E
:102FC0009006002015000020910600201800002027
:102FD0008E060020000801404FF47A73B0FBF3F333
:102FE00042F210723033B0FBF2F06FF0090202FBD4
:102FF0000030C0B270476423B0FBF3F34FF47A7231
:103000003033B0FBF2F06FF0090202FB0030C0B2C7
:1030100070470A236422B0FBF3F33033B0FBF2F0C5
:103020006FF0090202FB0030C0B270470A2200F1C3
:103030003003B0FBF2F06FF0090202FB0030C0B2C7
:1030400070470000064B0246197839B1054B01293B
:103050000CBF8021002118780BF020BC704700BF06
:10306000DD0E00209C060020044B02461B7823B195
:10307000034B402118780BF011BC7047DD0E002087
:103080009C0600200D4B052202FB003170B5A039D3
:103090000B4810F0D7FE0A4C0A4D661D20782B789D
:1030A000584004F8010BFFF7DFFFB442F6D1054B9F
:1030B0001878BDE87040FFF7D7BF00BF6846010829
:1030C000920600209E06002010B5044601E0FFF79E
:1030D000D9FF14F8010B0028F9D110BD10B5184B19
:1030E0001B78002B2BD0A620FFF7ACFFAE20FFF7FC
:1030F000A9FF2020FFF7A6FF0020FFF7A3FFB020C5
:10310000FFF7A0FF4020FFF79DFF0020FFF79AFF89
:103110001020FFF797FF4FF48064013C0020A4B219
:10312000FFF7A2FF002CF8D18120FFF78BFFC8200A
:10313000FFF788FFAF20BDE81040FFF783BF10BD49
:10314000DD0E002008B5084B1B785BB15038C0B2CB
:10315000FFF778FF0020FFF775FF1020BDE808405B
:10316000FFF770BF08BD00BFDD0E002007B53C2093
:10317000A02101220DF107030BF0D4FA28B1334B43
:103180003C221A700122324B0DE00DF107033D2065
:10319000A02101220BF0C6FA2D4B002854D02B4A57
:1031A0003D21117002221A70AE20FFF74BFFD5208F
:1031B000FFF748FF8020FFF745FFA820FFF742FFF9
:1031C0003F20FFF73FFFD320FFF73CFF0020FFF732
:1031D00039FF4020FFF736FF8D20FFF733FF142023
:1031E000FFF730FF2020FFF72DFF0020FFF72AFF19
:1031F000A120FFF727FFC820FFF724FFDA20FFF701
:1032000021FF1220FFF71EFF8120FFF71BFFCF20B9
:10321000FFF718FFD920FFF715FFF120FFF712FF86
:10322000DB20FFF70FFF4020FFF70CFFA420FFF784
:1032300009FFA620FFF706FF14200BF0DCFB01209E
:10324000FFF780FF012000E018700EBD9C060020F3
:10325000DD0E0020034B1B781BB10138C0B2FFF715
:1032600071BF7047DD0E002038B5104C00230546B5
:103270002370FFF77BFFB8B10DB101232370FFF777
:103280002DFF0120FFF7E6FF0948FFF71DFF032090
:10329000FFF7E0FF0748FFF717FF0420FFF7DAFF0B
:1032A0000548FFF711FF012038BD00BFDE0E0020EA
:1032B000AE450108BA450108D045010810B5074BD5
:1032C00004461B784BB1FFF7C5FF05480BF0D8FF4C
:1032D0002046BDE81040FFF7BDBF10BDDD0E002049
:1032E000E64501082DE9F04F304B8FB01A780132D6
:1032F000D2B21D2A1A7040F2A0812D4C00221A7001
:103300002068FDF7C5FE2B4902B206A80BF0D6FFD8
:10331000294B93F86130BBB12068FDF7B9FE27490E
:1033200002B20CA80BF0CAFF9DF830308DF81E30A9
:103330009DF831308DF81F309DF832308DF82030F7
:103340009DF833308DF821300120FFF783FF06A868
:10335000FFF7BAFE1A4906A80BF0B0FF194B1C780C
:103360002046FFF748FE8DF81E002046FFF751FE6D
:103370008DF81F002046FFF759FE134B00211C68F3
:103380008DF821002046FDF75BFE002814BF2D209C
:1033900020208DF828002046FDF7A0FE632815D9CF
:1033A0006424B0FBF4F4A4B211E000BF9D06002039
:1033B000940A0020FD450108080F00200C46010872
:1033C00010460108741B0020B41A0020002442F2A9
:1033D0001075B4FBF5F3303320468DF82930FFF734
:1033E000FBFD8DF82A002046FFF705FE8DF82B0027
:1033F0002046FFF70EFE8DF82C000220FFF72AFF73
:10340000DFF870B206A8FFF75FFE06A88C490BF044
:1034100055FFDBF80010DFF860A20029ACBF4E2397
:1034200053238DF81E30DFF8549291FBFAF33033BA
:10343000DFF84C828DF8203091FBF9F30A2491FBE0
:10344000F8F2303304FB02337E4F7F4E8DF821308B
:1034500091FBF7F391FBF6F2303304FB02338DF866
:1034600022307A4B7A4A91FBF3F091FBF2FE303036
:1034700004FB0E00DFF80CC28DF8240091FBFCF079
:10348000303002907348DDF808E091FBF0F004FB67
:1034900000EE019091FBF5F0303002906E488DF80F
:1034A00025E091FBF0FE0298049204FB0E0E8DF8CD
:1034B00026E04FF47A7E91FBFEF0303002906748B0
:1034C000059391FBF0FE0298CDF80CC004FB0E0EA4
:1034D0008DF827E04FF0640E91FBFEF03030029043
:1034E0005F4891FBF0FE029804FB0E0E91FBF4F096
:1034F000303002906FF063008DF828E091FBF0FE11
:10350000029804FB0E0E8DF829E06FF0090E01F110
:10351000300091FBFEF104FB010103208DF82A101D
:10352000FFF798FE06A8FFF7CFFD06A84D490BF060
:10353000C5FEDBF80410059B049A91FBF3F33033CE
:1035400091FBF2F204FB02320029ACBF4520572068
:10355000DDF80CC08DF81E003E488DF8242091FB4C
:10356000FCFC3D4A91FBF0F391FBF5F50CF1300CBE
:1035700004FB03CC303591FBF2F34FF47A7E3748ED
:1035800004FB035591FBFEF391FBF0F2303304FB97
:1035900002336422AEF5FA6E8DF8273091FBF2F318
:1035A000303391FBFEF204FB02336FF063008DF8C1
:1035B000283091FBF4F391FBF0F2303304FB02333B
:1035C00091FBF9F96FF0090291FBF7F791FBFAFA19
:1035D00091FBF8F8303791FBF6F68DF8293009F1B8
:1035E000300901F1300391FBF2F104FB089804FB70
:1035F000067604FB013404200AF1300A8DF825C058
:103600008DF820A08DF821808DF822608DF826504D
:103610008DF82A40FFF71EFE06A8FFF755FD124B56
:1036200006A81A78114B12491B780BF047FE0520AB
:10363000FFF710FE06A8FFF747FD0FB0BDE8F08FBB
:103640002646010880969800001F0AFA40420F00A3
:10365000806967FFC0BDF0FF6079FEFFF0D8FFFF13
:1036600018FCFFFF3C460108C91B0020450B002049
:10367000524601084C1B002000CA9A3B00E1F505A8
:10368000003665C4A08601000860086170B504209A
:103690000FE01D6853F8046FB54203DD43F8046C76
:1036A0001D6000240132D2B28242F2D1013AD0B27E
:1036B0001CB90B4601240022F6E770BD38B504465C
:1036C0000C4D0AE095F85E31012B02D107200BF07A
:1036D00092F914F8010C0BF01FFC14F8013B002BBD
:1036E000F0D10BF033FC0028FBD01E20BDE83840A1
:1036F0000BF081B9080F002001460020F0B5034609
:103700000C4A06460A2511E02E2C04D189B101335A
:10371000DBB2D4186654D45C6843A4F13007FFB21E
:10372000092F01D8303800190133DBB2D45C002CEA
:10373000EAD1F0BD10070020224BF0B5224A1D68E7
:10374000147810462B195B78013213F00403F7D17B
:103750001D4A0A2105E003B14B4312F8016B303ECC
:103760009B19861A022EF6DC00210A2605E001B11B
:10377000714312F8017B303FC9199042F7D82E2CC3
:1037800012D10130042400220A2706787A4305EB7F
:10379000060C9CF801C01CF0040F02D0303A9219BC
:1037A0000130013CF1D100E00022084806244143E9
:1037B000642000FB02120648B2FBF4F200FB032077
:1037C000F0BD00BF5C0000201007002040420F0049
:1037D000809698002DE9F843904BC4B293F85E119F
:1037E000042900F2C283DFE811F01F000500150272
:1037F000150205008A4E8B4D8B488C4F96F800C001
:103800004FEA04282A7803783988BCF1080F00F2BF
:10381000F480DFE81CF0E800F90034013B014701C7
:10382000520163017F018A01242C07D1804A0023C1
:103830001370804A1370804A1370C6E02C2C02D09B
:103840002A2C40F087807B4A7C4B127800209854C9
:10385000794A15787A4AE5B91978157047296FD1F0
:10386000597850296CD19978472907D1D9784729B7
:1038700066D11B79412B63D1012308E052295FD126
:10388000D9784D295CD11B79432B59D10223137070
:1038900056E01278012A3AD1022D04D1FFF74CFFED
:1038A000684B18604CE0032D07D11B78532B47D190
:1038B000644B1A6852421A6042E0042D04D1FFF7AB
:1038C0003BFF604B58603BE0052D07D11B78572B21
:1038D00036D15C4B5A6852425A6031E0062D07D10E
:1038E0001A78594B302A94BF002201221A7027E01F
:1038F000072D05D1FFF700FF544BC0B218701FE031
:10390000092D1DD1FFF7F8FE514B80B217E0022AB6
:1039100016D1072D0CD10120FFF7EEFE41F218431E
:1039200058434FF47A73B0FBF3F080B2494B06E092
:10393000082D05D10120FFF7DFFE474B80B218802C
:103940003D4B01353B4A1D7000232A2C137036D1A4
:10395000012127E00D2C414A01D00A2C25D11378F2
:10396000FBB136490A784978A2F13003DBB2092B62
:1039700084BFA2F13703DBB2A1F13002D2B203F06F
:103980000F031B01092A84BFA1F13702D2B202F052
:103990000F029B18264ADBB21178C91A4B4243EB3F
:1039A000010300212D4A11700FE022490B780E2BE4
:1039B00003D82248C45401330B70137823B91C4A2E
:1039C00011784C40147000E000231D4A127812B1A7
:1039D00023490120087023B1A2F10102534243EBB5
:1039E0000203DBB28EE20E48002505700D4802701E
:1039F0000D4A13700D4B198036E086F800C02A700E
:103A000003703980BDE8F883622C054E2A7003707C
:103A1000398027D102233370BDE8F883080F0020D6
:103A2000440700209F060020F1060020FA0600202F
:103A3000A5060020F0060020A406002010070020A4
:103A4000F8060020601B0020450B0020C91B002049
:103A5000281B0020761B0020E61B0020A10600206A
:103A60002407002000233370B52C03D1994B1A781A
:103A700001321A70984B00221A80BDE8F8830323A4
:103A8000337039802C700470944B08E0E318DBB27B
:103A900003709B1839802B700421914B31701C707E
:103AA000BDE8F883E318DBB203709B182B708D4BD5
:103AB000052131701C80BDE8F8831B19DBB241EA97
:103AC00008019A18B1F5007FD2B28CD8814806243B
:103AD000047085480270854A137022E0E318DBB257
:103AE00003709B187C4A2B7013883980332B98BF46
:103AF0007F494FF0060C98BFCC5401339BB2138022
:103B0000784A86F800C012889A4240F02E82072236
:103B1000704BB7E1A3427FF466AF082434702A707B
:103B20000370704B1980BDE8F88303700023A24234
:103B30002A703980337040F01882684B1A78012A55
:103B400040F01382664B1B78032B1CD002D8022B4B
:103B500052D104E0062B2AD0122B4DD13EE0644B0B
:103B60006449986808605868486019694FF47A7326
:103B700091FBF3F1604B89B21980604B1978604B6F
:103B80001970604B37E05A4A537913F0010306D09D
:103B90001379023BDBB2012B8CBF00230123574A70
:103BA000DBB21370002B27D1554A137024E0504A22
:103BB000D37A13F0010306D0937A023BDBB2012BD8
:103BC0008CBF002301234D4ADBB213700BB94C4A62
:103BD0001370474B93F82F204B4B0CE0444B4B4951
:103BE000988A0880996942F2107391FBF3F1484B6F
:103BF00089B21980474B1A70424A137833B145494C
:103C00000B781BB100230B7013700123424A012172
:103C1000117077E1414A424B107858B902290CBF24
:103C2000D021D121DD2C06D11878884203D164201F
:103C3000107000E0D12112781C70082A374B00F078
:103C4000CA8012D8042A00F08A8006D8022A36D008
:103C500070D8012A40F0898127E0062A3149324A8A
:103C600000F09A8000F2A18084E00C2A00F0EB8042
:103C700007D80A2A2B492C4A00F0CA8000F2D180CA
:103C8000B4E00E2A00F0F380C0F0E5800F2A00F0C7
:103C90000381642A40F0698101221A70234A0023BB
:103CA0001370214A1370BDE8F883202C0CBF022248
:103CB00000221A701C4B1A78A4181C70D3E01C4AFE
:103CC0001460194A117864181470164A0021117092
:103CD0000322C7E0440700202A070020AC0600208A
:103CE000B8060020FA0600209F060020F1060020FA
:103CF000BC060020601B0020281B0020B606002008
:103D0000450B0020A0060020C91B0020761B0020C8
:103D1000E61B00202707002024070020A306002020
:103D2000B406002028070020A2060020B7060020C5
:103D3000480700208E490A780832D2B20A708D49AD
:103D4000182A0878204404FA02F408708A4908689E
:103D500044EA00040C6040F08680042282E0874A36
:103D600000211460824A1170824A1178641814701C
:103D7000052277E008780830C0B20870117818285A
:103D8000214404FA00F411707C4A116844EA0104E9
:103D9000146068D1062265E0794804601078241820
:103DA000147000220A7007225CE008780830C0B264
:103DB000087011781828214404FA00F41170704A30
:103DC000116844EA010414604DD16421B4FBF1F49C
:103DD0001460082246E06B4A1460664A1178641841
:103DE0001470634A0021117009223BE00878083002
:103DF000C0B2087011781828214404FA00F4117038
:103E0000604A116844EA010414602CD10A2229E0B6
:103E10005D48046010782418147000220A700B2288
:103E200020E008780830C0B20870117818282144C2
:103E300004FA00F41170544A116844EA0104146051
:103E400011D10C220EE0514A14704A4A11786418BC
:103E500014700D2206E04E4A1470464A1178641818
:103E600014700E221A704B4B1A7801320AE049493D
:103E7000404A0878212808D11278A24201D10F22A5
:103E800000E000221A70BDE8F88313780130E418CE
:103E900014700870BDE8F8833D4B1B78012B3E4B36
:103EA00001D9012200E00022D0291A7008D1324B3A
:103EB0000A22196851431960304B19684A431A6045
:103EC0002D4B1A68354B1A602C4A12685A602C4BDD
:103ED0001A88334B1A802B4B1A88324B1A802A4B84
:103EE0001A680A23B2FBF3F22F4B92B21A80274BC7
:103EF0001A782E4B1A702E4B01221A702D4B00226D
:103F00001A7001E0002B30D0234B2B481B788BB963
:103F10000378002B25D12949294A0B6013604B6097
:103F200053608B609360CB60D3600B61136101239E
:103F3000037016E00023194C204E0370204D2068BA
:103F40003146FFF7A1FB60682946FFF79DFBB26889
:103F50003AB1AB682BB11549097805299CBF22609D
:103F600063600AF037FD174B1860BDE8F88300BFA7
:103F700028070020A206002048070020B0060020E5
:103F8000200700202C070020A8060020250700207D
:103F900026070020B7060020450B0020601B0020EC
:103FA000281B0020761B0020E61B0020C91B0020D8
:103FB00024070020A3060020B5060020FC060020F0
:103FC00030070020040F00200C4A0D49136813B974
:103FD0000B6813607047086898420A4B03D11A783F
:103FE00001321A7003E009680020187011601B7814
:103FF0004B2B02D1102003F017B97047F4060020B4
:10400000040F00201F07002038B5064D00240720AC
:104010000AF0F1FC605D01340AF07EFF0B2CF6D152
:1040200038BD00BFBC4A010870B5174E04460025D4
:1040300032200AF0E0FCA8590AF06CFFFA200AF0DE
:10404000DAFCB4F5164F0DD003D8B4F5964F10D165
:1040500006E0B4F5614F07D0B4F5E13F09D105E0C2
:104060000A4804E00A4802E00A4800E00A48FFF76C
:1040700025FB0435142DDBD120460AF04BFFC82068
:10408000BDE870400AF0B7BCF0490108E8480108F3
:104090000A4901082C4901084E4901082DE9F84355
:1040A0003B4F00233B7005464FF4FA600AF0A3FC37
:1040B0000AF090FC00F53A5808F16008354E57E0D8
:1040C0002846354922460AF0D9FE96F85E31012B82
:1040D00003D049D3032B47D80FE02846FFF7A4FFAE
:1040E000DFF8D49007200AF086FC14F809000134A8
:1040F0000AF012FFB82CF5D136E0DFF8C09054F882
:1041000009000AF007FFC8200AF075FC04342348B0
:10411000FFF7D4FA142CF2D14FF461400AF0FAFE02
:10412000C8200AF068FC1E48FFF7C8FAC8200AF049
:1041300062FC1C48FFF7C2FAC8200AF05CFC1A486F
:10414000FFF7BCFAC8200AF056FC1848FFF7B6FA89
:10415000C8200AF050FC1648FFF7B0FAC8200AF051
:104160004AFC1448FFF7AAFA4FF47A700AF043FCAD
:104170003C781CB90AF02EFC4045A1D3044B1B78B7
:1041800023B11020BDE8F84303F046B8BDE8F8833A
:1041900024070020080F0020D537000871490108C6
:1041A000854901089E490108B0490108C049010834
:1041B000D0490108E0490108044A0108F049010812
:1041C00010B504460AF0ECFB0E4A0F491368106064
:1041D000C31A41F2883293420B600C4B01D9002282
:1041E0001A701B780A4AE4B2142BD45406D1094B36
:1041F00001221A70084B00221A8010BD034A0133B5
:10420000137010BD4C0700207807002074070020B1
:10421000DF0E002050070020620B002002494FF4FF
:10422000E13001220AF02ABEC1410008014B187892
:10423000704700BF50070020F8B51F4B07461B789A
:104240001BB31E4E3378A82B1CD1F47CD4B91C4D63
:104250006300DA1C0433B05CF35C013403EB002030
:10426000FCF7C2F810A3D3E90023FCF75DFA10A312
:10427000D3E90023FBF77AFFFCF7C6FB082C45F8CF
:10428000040FE5D10C4B00221A70072F03D90D4BF8
:10429000B3F8F000F8BD0C4BDA5D0C4B33F822009C
:1042A000F8BD00BFAFF300809A9999999999194088
:1042B000000000000070774050070020DF0E002053
:1042C00050070020080F0020C74A010854070020AB
:1042D000124B012210B51A7004460AF061FB104A15
:1042E000104913681060C31A41F2883293420B6080
:1042F0000D4B01D900221A701B780C4AE4B20F2B27
:10430000D45406D10A4B01221A700A4B00221A809B
:1043100010BD054A0133137010BD00BF9D0700207A
:10432000A0070020A8070020AC070020F40E002002
:104330009C070020620B0020094B0A4A93F8ED10FD
:10434000094B19B103211170072202E002211170FB
:10435000032206491A704FF4E13001220AF08EBDA3
:10436000080F00207C070020A4070020D14200088D
:10437000014B1878704700BF9C0700201E4BF0B51A
:104380001B78EBB11D4B1E4A1E781E4B1E4C1D7830
:104390000223D15C03F1010C41FA06F101F00F0197
:1043A000062907D8D75C12F80CC02F400CEB072762
:1043B00044F821700233102BEBD10F4B00221A70FE
:1043C0000628124B02D8124A127812B9B3F8F0003C
:1043D000F0BD93F8ED101B180B4A93F8DC3052F83F
:1043E000230021B1400800F5777080B2F0BD00F5E0
:1043F000777080B2F0BD00BF9C0700207C070020D2
:10440000F40E0020A407002080070020080F0020E1
:104410009D07002044F2506302E0A0F50C40A03854
:104420009842FADC03E000F50C40A03000E0024BBB
:104430009842F8DB704700BFB1B9FFFF00000000F1
:104440002DE9F843244E9846337807460D46144626
:10445000B3B9224B187CFCF7FDFBFBF7E7FF1CA36D
:10446000D3E90023FCF736F80B4602461C4900202E
:10447000FCF75AF9FCF7E8FA1A4B1860012333707D
:10448000184B28461968FCF735FB01462846FCF70F
:10449000EDFCA668616881463846FCF729FB294691
:1044A000FCF7E4FC3146FCF723FB01464846FCF7E9
:1044B00029FC01463046FCF71DFB6760A060D8F878
:1044C0000810FCF71FFCBDE8F88300BFAFF30080C5
:1044D000182D4454FB21094060080020080F0020DB
:1044E0000000E03FFC0700202DE9F04F002485B0DC
:1044F000624F03902546624B1888039B1BB900B29C
:10450000FCF7ACFB40E0E659002126F000463046BF
:104510004FF00108FCF78AFD08B14FF00008594B35
:1045200018F0FF0F08BF4FF07E5693F86A01FCF7B2
:1045300091FB3146FCF79AFC524B064693F86D010D
:10454000FCF788FB5049FCF7DDFB804630460DF058
:10455000E5F84146FCF774FD70B930460DF0DEF821
:104560004FF07E51FCF78AFD20B930460DF0D6F8A9
:10457000804601E04FF07E58444BB3F90000FCF751
:104580006DFB4146FCF7BEFB414BDFF81C9154F834
:104590000380D9F8001006464046FCF7B3FB0C2315
:1045A0006B4301933B4BD9F804101B6802904046C3
:1045B0000093FCF7A7FB0099FCF7A4FBDFF8ECA045
:1045C000019B5AF80310FCF795FAD9F80C90804635
:1045D00009F1004B5946FCF733FD30B940464946D6
:1045E000FCF74CFD10B1C84600E0D846019B41469F
:1045F0004AF803800298FCF77DFAE159FCF778FA53
:1046000025498246FCF71CFD38B950462349FCF782
:1046100035FD20B1DFF884A001E0DFF87CA0DFF8F1
:1046200090805046D8F80010FCF76CFB1C4B0C2215
:10463000814602FB0532009943465046FFF700FFD2
:1046400001464846FCF756FA06F1004841468146C5
:10465000FCF7F6FC38B948463146FCF70FFD08B1C7
:10466000B04600E0C8460F4B013544F803800434DF
:10467000082C7FF440AF05B0BDE8F08FB0080020F3
:1046800016000020080F00200AD7233C020000205B
:104690008C1A0020840A002000007AC400007A44AA
:1046A00014080020341B002040080020B007002020
:1046B00050080020784B2DE9F04F1C68774B89B0EB
:1046C0001E680590A61B3046FFF7A4FE002841F2A5
:1046D0009313D8BF4042984237DC714B0021D3F886
:1046E00084512846FCF7A2FC00282ED13046FCF766
:1046F000B5FA6C49FCF706FB0CF0FCFD6A4B06466C
:104700001868FCF7A7FA01463046FCF7FBFA294681
:10471000FCF7F8FAFCF7BCFC40F6B8339842A8BFA7
:104720001846624B9842ACBF2418E41802E004F526
:104730000C44A034002CFADB03E0A4F50C44A03CAC
:1047400001E048F69F439C42F7DC594B1C60584BF4
:104750001868C0F50C502830FCF780FA5149FCF776
:10476000D1FA04460CF092FD079020460CF0C2FDF1
:1047700000240690254601940598FCF76BFA05F194
:1047800018036A469958FCF7BDFA4A4A0646A958E2
:10479000FCF7AEF948490746FCF752FC30B93846F9
:1047A0004649FCF76BFC10B1444F00E0424F444BCC
:1047B00038461968FCF7A6FA019A0C235343DFF830
:1047C00010913F4A04905168029338464B4403933A
:1047D000FCF798FA3B4B1968FCF794FA029B59F8DE
:1047E0000310FCF787F9364A8046D2F80CA00AF18C
:1047F000004B5946FCF724FC30B940465146FCF7C3
:104800003DFC10B1D04600E0D846029B414649F835
:1048100003800498FCF76EF92A4B804619683846E5
:10482000274B039AFFF70CFE01464046FCF762F95E
:104830001B4B804693F88171BFB131463046FCF77F
:1048400061FA81463846FCF705FA1F49FCF75AFA27
:1048500001464846FCF756FA002107463046FCF769
:10486000EFFB18B107F1004700E00027404639464A
:10487000FCF740F9154BE850154B0435E258154B41
:10488000E250019A0C340132082D01927FF474AF8A
:1048900009B0BDE8F08F00BF801A0020841A002004
:1048A000080F0020D3023739781A002048F4FFFFA0
:1048B000741A00203808002000007AC400007A44EE
:1048C000E8070020840A002017B7D138341B0020E5
:1048D000C807002014080020F8B51B4B1B4A1978A4
:1048E000B2F87E511A4B39B992F880211C68B4FB9A
:1048F000F2F4A54206D303E01C68A54238BF2C465B
:10490000A4B200E02C46134E20463768FCF7A6F907
:104910003946FCF7B3FB60B10F4B10491868FCF740
:10492000F1F901463846FCF7E5F83060FCF7D6FBB4
:1049300084B2064B93F87C01844203D3AC4234BF6B
:1049400020462846F8BD00BFF91A0020080F0020B5
:10495000781A0020881A0020840A00200000C8422B
:104960002DE9F041344C354D607DFCF773F9344945
:10497000FCF77CFA2860E07FFCF76CF93149FCF722
:1049800075FA94F86B616860192070434FF0000865
:1049900084F82980FCF762F90746E860A07DFCF7FF
:1049A00059F92949FCF762FA284D286094F82A0041
:1049B000FCF750F92649FCF759FAEF60A860E07D52
:1049C00084F82080FCF746F92249FCF74FFA224D83
:1049D000286094F82100FCF73DF91D49FCF746FAE0
:1049E000686094F82B00FCF735F91949FCF73EFA9A
:1049F0001A4A1B4BEF601A601A4A1B4B94F86C71F1
:104A00001A600A227243194BA8601A80642303FBC0
:104A100006F55F43164A174E1580378094F86901F2
:104A2000FCF718F91449FCF76DF9144BAF42186004
:104A3000C8BF3580BDE8F081080F00204008002085
:104A40000000C84200409C450000A04050080020E3
:104A500000007A4400002041E807002051E0EF30D8
:104A6000E0070020FDF7653F00080020220000203D
:104A700016000020020000200AD7233C5C1B002007
:104A80002DE9F84F0022DFF8A4B0DFF8A4A0DFF88A
:104A9000A490DFF8A480DFF8A4C0DFF8A4E01A4FE8
:104AA0001A4E1046002352F80A10194D42F80B1006
:104AB000184942F8093053500C2141436C186B508F
:104AC000154D6360A3606B506C18144D013063602A
:104AD000A36042F808306C1842F80C3042F80E30EF
:104AE000D3519351043202286B506360A360DAD132
:104AF0000B4B93F87C01FCF7ADF80A4B00221860D1
:104B0000094B1A70BDE8F88FA00A0020341B002062
:104B1000B00700204C0B002014080020C80700201C
:104B2000080F0020881A0020F91A00200808002029
:104B30004C1B00203008002038080020B00800205E
:104B40008C1A0020064BDA7932B99A7932B9187A80
:104B5000003018BF012070470120704701207047C6
:104B60001A1B002008B5084B1868084B1B68C01AB0
:104B7000FFF750FC42F210730028B8BF4042984241
:104B8000D4BF0020012008BD801A0020841A002014
:104B900070B5174B08B100221A701D7835BB144B45
:104BA00001241C70134B144E1868FCF757F8134B74
:104BB0001968FCF7A7F820F000400CF067FB002113
:104BC0003060FCF733FA00B12C4614F0FF0F08BF39
:104BD0000B4B0C4908BF33603068FCF793F8014673
:104BE0004FF07E50FCF742F9074B586070BD00BF94
:104BF000F80700204C1B00202C080020E0070020B4
:104C00007DC3E43A2C7D8E3F0008002070B50D4630
:104C100004460020FFF7BCFF2868D0B12668C6B163
:104C20000E4A5368ABB115689DB1C01AFCF716F86F
:104C30000B49FCF767F80B4B0B4C1968FCF762F853
:104C40006060701BFCF70AF80549FCF75BF8206010
:104C500070BD054B00225A601A6070BD4C1B0020CD
:104C60002C7D8E3F2C0800208C1A00202DE9F84F57
:104C70009846036804460E461546002B00F0A580B2
:104C8000554F3B68002B00F0A0800B68002B00F014
:104C90009C807B68002B00F098800020FFF778FF55
:104CA0003B682068C01AFBF7D9FF7B6881463068F3
:104CB000C01AFBF7D3FF494B06461968FCF722F8E8
:104CC000494682464846FCF71DF851468146504603
:104CD000FCF718F801464846FBF70CFF0CF01EFDE8
:104CE0003F49FCF70FF8FCF7F9F93E4B28601D68C7
:104CF00030462946FCF706F806463868FBF7AEFF53
:104D00002946FBF7FFFF07462068FBF7A7FF294668
:104D1000FBF7F8FF81460CF0B9FA044630460CF078
:104D2000E9FA2146FBF7EEFF054638460CF0AEFAED
:104D3000834648460CF0DEFA824638460CF0DAFA32
:104D4000814630460CF0A2FA514607465846FBF71A
:104D5000D9FF214606464846FBF7D4FF3946FBF704
:104D6000D1FF01463046FBF7C3FE044621462846E4
:104D70000CF0D2FC1C49FBF7C5FFFCF789F91B4B73
:104D8000984216DB214628460CF0C6FC1649FBF774
:104D9000B9FFFCF77DF944F25063984209DC2146E3
:104DA00028460CF0B9FC1049FBF7ACFFFCF770F992
:104DB00000E018460028C8F800000ADA00F50C40A8
:104DC000A030C8F80000BDE8F88F00232B60C8F8B9
:104DD0000030BDE8F88F00BF4C1B00202C080020DD
:104DE0002C7D8E3FE0070020A00CB345B0B9FFFF3B
:104DF0002DE9F84F0020FFF7CBFE5949594A0C68BE
:104E000013680968E41A116000F08280564B1A7822
:104E1000D2F1010238BF00221A70544B0022B4F5BF
:104E2000C87F1A7074D25249524A4F6857600E6850
:104E30001660514A1188514A1180514A1188514ACD
:104E4000118001221A70A4F10B03122B07D92046FE
:104E5000FBF700FF01464C48FCF708F800E04B4820
:104E6000A4F12903122BA4F1510398BF4848262B23
:104E7000A4F1B50398BF4748262B98BF4648E73CA6
:104E8000262C98BF4FF081404449FBF73BFF444D2F
:104E900080466868434C381AFBF7E0FE4146FBF752
:104EA00031FF414B1968FBF72DFF60608146286890
:104EB000301AFBF7D3FE4146FBF724FF3B4B2E6035
:104EC000D3F860612060824631464FF07E50FBF798
:104ED0000FFE374C804621683046FBF713FF4146F2
:104EE00083465046FBF70EFF01465846FBF702FE8D
:104EF000616820606F603046FBF704FF414605465D
:104F00004846FBF7FFFE01462846FBF7F3FD6060CD
:104F100009F060FD124B1B68C01AB0F5FA7F134B05
:104F200001D900221A701B78B3B1214E1D4D306893
:104F30002968FBF7DFFD4FF07C51FBF7E3FE1D4CCA
:104F4000696820607068FBF7D5FD4FF07C51FBF776
:104F5000D9FE6060BDE8F88FBDE8F84FFFF790BD5F
:104F6000040F0020E4070020520A0020100800204F
:104F7000601B00204C1B0020761B00203C1B0020E7
:104F8000E61B0020F809002000007A440000484297
:104F90000000A041000020410000A0402C7D8E3F79
:104FA00008080020300800202C080020080F0020EE
:104FB000B00800203808002010B503E020460B4957
:104FC000FBF796FD0A490446FCF758F80028F5D18E
:104FD00004E020460549FBF78DFD044620460549BF
:104FE000FCF738F80028F4D1204610BD0000B44387
:104FF00000003443000034C3034B92221A80034B59
:105000000022A3F84222704762080020080F002007
:10501000164B70B51A8804460D461E460AB9FFF7AE
:10502000EBFF134A3088B2F8423283421AD2248806
:10503000A04219DDC8B12401A4B20021A2186C5C01
:1050400050180131102980F84442F8D1084A013340
:10505000A2F8423209F0BEFC064B00F57A701860E7
:10506000012070BD002070BD002070BD62080020CE
:10507000080F0020380B00200B4A0088B2F842329B
:1050800083420DDD73B1000180B200238218D01875
:1050900090F84402C8540133102BF8D10120704716
:1050A0000020704718467047080F00201A481B4917
:1050B000026800608A4219D0002103E0184B5B5857
:1050C000435004311748184B42189A42F6D3174AF6
:1050D00002E0002342F8043B154B9A42F9D30BF04F
:1050E00067F80EF08BFE03F0D3FCFEE7114E12487A
:1050F00030601248016821F0706101604102016076
:105100000F4C182020600F490F4808600F48D0F856
:1051100000D0406800470000F04F0020EFBEADDE39
:10512000E87C0108000000208C040020900400208E
:10513000E41E002018100240090000000400014095
:10514000140C0140000C01404434434400F0FF1FA4
:10515000FEE7000038B5124B124D1A78124C5AB9BE
:10516000226829683232914219D30120187009F05F
:1051700069FC2B68236038BD226880182A68824247
:105180000DD30020187009F05DFC2B682360074BDD
:105190001A780AB1013A1A70054B01221A7038BD0B
:1051A00064080020180A0020680800206608002013
:1051B0006508002037B5204D8DF807302B788DF825
:1051C000051002A98DF806208DF80400CA1812F8FF
:1051D000042C443AD2B20A2A9ABF184931F8124034
:1051E0003224022B03D814B12046FFF7B3FF2B78EB
:1051F000022B0BD9124B134A1B6812681B1B9A42D5
:1052000004D20D4A002313700F4A13700F4B1A7803
:10521000194602B974B9084B1A78022A01D801322A
:105220001A700B4B00200870187003B0BDE83040B6
:1052300009F008BC03B030BD67080020D04A01085F
:10524000180A002068080020660800206508002071
:105250006408002070B50546802001F0F3FF20B3FC
:105260003A48052290F8FA10394E02FB01F33488CF
:10527000A4B29C420DDD374C64785CB190F8FB0021
:10528000348809184A43A4B29442D4BF01240224AA
:1052900000E000242E4A128892B29A4206DD2D4B7D
:1052A0005B78002B08BF022400E00446102001F0C8
:1052B000A9FF78B1284B1B784BB9284B9A7942B992
:1052C000DA7932B9187A003018BF012002E00020E4
:1052D00000E00120022C02D14C204E2119E03CB10B
:1052E0004D2153204C220B46BDE87040FFF762BFB2
:1052F00018B1532001464E2205E0184BDB7A23B14A
:105300005320014602464D23EEE7042D03D15320DE
:105310004D210A4609E0022D03D1532001464D22BA
:1053200003E025B153204D214E224423DCE70C4BF2
:105330001B7823B13220BDE87040FFF70BBF094B4B
:1053400028461D70BDE8704009F07CBB080F0020A6
:10535000620B00201A1B0020450B0020B01B002010
:10536000660800206408002070B5B0FBF2F4064621
:1053700015461CB12046FFF7F7FF014605FB1464F4
:10538000024B08461B5D00F8013B70BD4C4C010808
:105390002DE9F84F037804460130202BFAD0092B71
:1053A000F8D02D2B05D104464FF0000ADFF878B174
:1053B00006E02B2BDFF86CB108BF04464FF0000A63
:1053C0004FF000084FF0000912E00022544B404615
:1053D0004946FBF77FF8064628460F46FBF714F8C8
:1053E00002460B4630463946FAF7C2FE80468946E9
:1053F000234614F8012BA2F13005E9B20929E4D9BA
:105400002E2A21D11A460026454F16E0FAF7FCFF56
:1054100032463B46FBF788F902460B464046494672
:10542000FAF7A6FE002280468946304639463C4BB4
:10543000FBF750F8224606460F465078541C303889
:10544000C2B2092A2346E1D91A78652A01D0452A31
:105450004ED15A782D2A02D10233012505E02B2A9C
:1054600001D0013300E00233002500240A2102E0CC
:1054700001FB0424303C13F8012BA2F13000C0B230
:105480000928F5D9B4F59A7F28BF4FF49A74002201
:10549000244B09E0104619461DA3D3E90023FBF76E
:1054A00019F8323C02460B46312CF3D8264609E067
:1054B0001046194618A3D3E90023FBF70BF8083C64
:1054C00002460B46072CF3D806F0070408E0104606
:1054D00019460022124BFAF7FDFF013C02460B462B
:1054E000002CF4D135B140464946FBF71DF905E0E3
:1054F0000C4B002240464946FAF7ECFF02460B46A9
:1055000050465946FAF7E6FFFBF79EFABDE8F88FDA
:105510009A647EC50E1B514A0000000084D7974153
:10552000000024400000F03F0000F0BFAFF3008017
:10553000F8B5027903460669C468052A45D8DFE84C
:1055400002F003030E0E1A259B681A785118A14227
:1055500003DBB142B4BF0C4634461C70F8BD9B68F7
:10556000B3F900205118A14203DBB142B4BF0C468D
:1055700034461C80F8BD9B681A688918A14203DB79
:10558000B142B4BF0C4634461C60F8BD9F68084663
:10559000FBF764FB0D49FBF769FC3968FBF7AAFAD6
:1055A00005462046FBF75AFB044621462846FBF7F2
:1055B00047FD40B93046FBF751FB044621462846DB
:1055C000FBF75CFD00B125463D60F8BD00007A4464
:1055D000024B01221870024B1A70704778080020A5
:1055E0008008002010B50D4C0D4809F049FE618877
:1055F0000C48C1F5406209F043FE61880A48A1F5F4
:105600001261043909F03CFEB4F84222074840F622
:1056100024119223BDE8104009F032BE080F00208B
:10562000714C01087B4C01089A4C0108A94C0108F7
:1056300008B5FFF7D7FFFFF7DFFC034809F020FEAE
:10564000BDE80840FFF7CEBFD64C010838B5054687
:10565000582455F8040BFBF71BFD21460246013484
:10566000024809F00DFE5B2CF3D138BDE44C010873
:10567000014809F0F9BB00BFF44C0108014809F0EA
:10568000F3BB00BF264D010838B5074809F0ECFB15
:10569000064D00242B19615905485A680C3409F04D
:1056A000EFFDCC2CF6D138BD444D01086C4B010800
:1056B0005C4D0108A24B2DE9F74319684FF47A734A
:1056C000B1FBF3F19F4BA0481A78A04BA04E1B787A
:1056D00009F0D6FD01F0B0FD9E4B074619689E4BC0
:1056E0009E48B1FBF3F109F0CBFD0024012556F8EB
:1056F000241049B105FA04F33B4202D0984809F05E
:10570000BFFD0134E4B2F2E7964B1868FBF7C0FC2A
:1057100004B209F01BF921460246934809F0B0FD96
:10572000FFF760FF914809F0ABFD914809F0A8FD33
:10573000904B1B780BB1904800E0904809F0A0FD19
:105740008F4C904809F09CFD8F48FFF77FFF94F83D
:10575000363033B18D4809F093FD04F13800FFF77E
:1057600075FF8B4B1868FBF793FC0146894809F0DD
:1057700087FD012001F046FDF0B1874B87481A787C
:10578000874B7F4C53F8221009F07AFD854809F0C9
:1057900077FD94F8603063B1834809F071FD04F13E
:1057A0004400FFF753FFB4F95010804809F068FD3A
:1057B00002E07F4809F058FB042001F023FD002897
:1057C00030D07C486E4C09F05BFD764809F058FDFE
:1057D00094F86130C3B1744809F052FD04F15400EB
:1057E000FFF734FF744D5824744955F8040FFBF744
:1057F00089FAFBF74DFC214602460134704809F056
:105800003FFD5B2CF0D102E0694809F02DFB6D48AB
:1058100009F036FD6C4B1B780BB16C4800E06C480E
:1058200009F02EFD022001F0EDFC90B1694809F06D
:1058300027FD694B1B79012B0CBF6848684809F0AC
:105840001FFD684B1868FBF723FC0146514809F01F
:1058500017FD654809F014FD022001F0D3FC18B9CA
:10586000102001F0CFFC70B3102001F0CBFCC0B1D0
:10587000434C5E4809F004FDB4F83C02FBF7EAF93A
:105880005B49FBF73FFAFBF729FCB4F83A1285B203
:10589000584809F0F5FCB4F83C1257482A4609F07C
:1058A000EFFC022001F0AEFC68B1354C534809F022
:1058B000E7FCB4F93E12524809F0E2FCB4F9401298
:1058C000504809F0DDFC2E4D4F4809F0D9FCB5F8E1
:1058D0000421B5F80A31B5F802114C4809F0D0FCA2
:1058E000B5F80231B5F80471FF1A642397FBF3F79A
:1058F000474BBFB21A78EAB1464A474C16789946E8
:10590000082E28BF08260022A8460FE034F8023FE0
:10591000B8F80211551C591A91FBF7F112F8092039
:105920003E480091294609F0ABFC2A46D3B2B34267
:10593000ECD377E03A4803B0BDE8F04309F0A0BCEF
:10594000180A0020741B0020654D0108200000206B
:105950001C6001084000002040420F009E4D0108DD
:10596000F55301081C000020BC4D0108E14D010861
:10597000EA4D0108800B0020F24D0108FB4D0108A3
:10598000080F0020FF4D0108F41B0020084E0108FD
:10599000001B0020134E0108A90B00201E4E010819
:1059A000384C0108294E0108344E01083F4E0108C9
:1059B0004C4E01085B4E01080C1C002000007A448C
:1059C0006B4E01087E4E0108DC0E00208A4E010855
:1059D000864E01088D4E01082C1C0020974E0108B0
:1059E0009E4E0108FC1A0020A54E0108B04E010889
:1059F000BC74133DB74E0108C84E0108E54E0108BE
:105A0000EE4E0108024F0108164F0108214F010810
:105A1000E81B0020CA1B0020081B0020474F01087C
:105A2000884F010803B0BDE8F08300BF2DE9F041C5
:105A300007460EF08DFBC6B23EB91D4B1D485A7984
:105A40001D4B013A53F822102BE038461B493246D1
:105A50000EF0AEFB044670B9194809F005FA164D70
:105A600055F8241029B11748013409F009FCE4B2B3
:105A7000F6E7154806E0DFF84080002558F8254095
:105A800024B91248BDE8F04109F0EEB93846214684
:105A900032460EF08DFB013538B9054B0C485D716F
:105AA0002146BDE8F04109F0EBBBEDB2E6E700BFEF
:105AB000080F0020934F0108184B0108205F0108D0
:105AC000A74F0108F553010830560108BA4F0108E5
:105AD000D24F010838B50D68044628460EF038FB51
