:020000040800F2
:100000000050002031510008D5510008918D0008A2
:10001000D5510008D5510008D55100080000000056
:10002000000000000000000000000000D5510008A2
:10003000D551000800000000D551000889E90008EA
:10004000D5510008D5510008D5510008D5510008F8
:10005000D5510008D5510008D5510008E91C000809
:10006000D5510008D5510008D5510008D5510008D8
:10007000D5510008D551000865EC0008D55100089D
:10008000D5510008D5510008D5510008D5510008B8
:10009000D5510008D5510008D5510008ED1C0008C5
:1000A000D5510008D5510008D5510008292D000868
:1000B000812D00088D2D0008992D0008DDE5000830
:1000C00041E90008E1E500083DE90008D5510008D4
:1000D000D5510008D551000861EF0008D55100083E
:1000E00085150008D5510008D55100080000000012
:1000F0000000000000000000000000000000000000
:0C01000000000000000000005FF808F1A3
:1001100010B5054C237833B9044810B10448AFF347
:1001200000800121217010BD90040020000000001B
:10013000BC7C010808B5064B1BB106480649AFF365
:1001400000800648016811B1054B03B1984708BD0E
:1001500000000000BC7C0108940400208C040020F6
:100160000000000081F0004102E000BF83F0004386
:1001700030B54FEA41044FEA430594EA050F08BF42
:1001800090EA020F1FBF54EA000C55EA020C7FEA06
:10019000645C7FEA655C00F0E2804FEA5454D4EB83
:1001A0005555B8BF6D420CDD2C4480EA020281EA4D
:1001B000030382EA000083EA010180EA020281EA85
:1001C0000303362D88BF30BD11F0004F4FEA0131D7
:1001D0004FF4801C4CEA113102D0404261EB4101E6
:1001E00013F0004F4FEA03334CEA133302D052426C
:1001F00063EB430394EA050F00F0A780A4F1010428
:10020000D5F1200E0DDB02FA0EFC22FA05F2801861
:1002100041F1000103FA0EF2801843FA05F3594147
:100220000EE0A5F120050EF1200E012A03FA0EFCC6
:1002300028BF4CF0020C43FA05F3C01851EBE371F0
:1002400001F0004507D54FF0000EDCF1000C7EEB0D
:1002500000006EEB0101B1F5801F1BD3B1F5001F4B
:100260000CD349085FEA30004FEA3C0C04F101046A
:100270004FEA445212F5800F80F09A80BCF1004F93
:1002800008BF5FEA500C50F1000041EB045141EA15
:10029000050130BD5FEA4C0C404141EB010111F416
:1002A000801FA4F10104E9D191F0000F04BF0146C1
:1002B0000020B1FA81F308BF2033A3F10B03B3F19F
:1002C00020020CDA0C3208DD02F1140CC2F10C022F
:1002D00001FA0CF021FA02F10CE002F11402D8BF8D
:1002E000C2F1200C01FA02F120FA0CFCDCBF41EA59
:1002F0000C019040E41AA2BF01EB0451294330BD28
:100300006FEA04041F3C1CDA0C340EDC04F1140404
:10031000C4F1200220FA04F001FA02F340EA0300DB
:1003200021FA04F345EA030130BDC4F10C04C4F121
:10033000200220FA02F001FA04F340EA0300294601
:1003400030BD21FA04F0294630BD94F0000F83F44B
:10035000801306BF81F480110134013D4EE77FEA2E
:10036000645C18BF7FEA655C29D094EA050F08BF7A
:1003700090EA020F05D054EA000C04BF194610465B
:1003800030BD91EA030F1EBF0021002030BD5FEA9F
:10039000545C05D14000494128BF41F0004130BDC7
:1003A00014F580043CBF01F5801130BD01F000451B
:1003B00045F0FE4141F470014FF0000030BD7FEA8E
:1003C000645C1ABF194610467FEA655C1CBF0B4689
:1003D000024650EA013406BF52EA033591EA030FA0
:1003E00041F4002130BD00BF90F0000F04BF002198
:1003F000704730B54FF4806404F132044FF00005CB
:100400004FF0000150E700BF90F0000F04BF002143
:10041000704730B54FF4806404F1320410F00045A9
:1004200048BF40424FF000013EE700BF42004FEAA4
:10043000E2014FEA31014FEA02701FBF12F07F4321
:1004400093F07F4F81F06051704792F0000F14BF1E
:1004500093F07F4F704730B54FF4607401F0004562
:1004600021F0004120E700BF50EA010208BF7047B9
:1004700030B54FF000050AE050EA010208BF7047AE
:1004800030B511F0004502D5404261EB41014FF417
:10049000806404F132045FEA915C3FF4DCAE4FF01B
:1004A00003025FEADC0C18BF03325FEADC0C18BF02
:1004B000033202EBDC02C2F1200300FA03FC20FA53
:1004C00002F001FA03FE40EA0E0021FA02F11444A0
:1004D000C1E600BF70B54FF0FF0C4CF4E06C1CEAB5
:1004E00011541DBF1CEA135594EA0C0F95EA0C0F2A
:1004F00000F0DEF82C4481EA030621EA4C5123EA9D
:100500004C5350EA013518BF52EA033541F48011CB
:1005100043F4801338D0A0FB02CE4FF00005E1FB7E
:1005200002E506F00042E0FB03E54FF00006E1FBC8
:1005300003569CF0000F18BF4EF0010EA4F1FF040B
:10054000B6F5007F64F5407404D25FEA4E0E6D414B
:1005500046EB060642EAC62141EA55514FEAC5205C
:1005600040EA5E504FEACE2EB4F1FD0C88BFBCF5D8
:10057000E06F1ED8BEF1004F08BF5FEA500E50F189
:10058000000041EB045170BD06F0004646EA01014F
:1005900040EA020081EA0301B4EB5C04C2BFD4EB81
:1005A0000C0541EA045170BD41F480114FF0000E7A
:1005B000013C00F3AB8014F1360FDEBF002001F0E8
:1005C000004170BDC4F10004203C35DA0C341BDC62
:1005D00004F11404C4F1200500FA05F320FA04F034
:1005E00001FA05F240EA020001F0004221F0004168
:1005F00010EBD37021FA04F642EB06015EEA430EDB
:1006000008BF20EAD37070BDC4F10C04C4F120050A
:1006100000FA04F320FA05F001FA04F240EA0200BD
:1006200001F0004110EBD37041F100015EEA430E8E
:1006300008BF20EAD37070BDC4F1200500FA05F2AE
:100640004EEA020E20FA04F301FA05F243EA02032D
:1006500021FA04F001F0004121FA04F220EA02003C
:1006600000EBD3705EEA430E08BF20EAD37070BD82
:1006700094F0000F0FD101F00046400041EB010162
:1006800011F4801F08BF013CF7D041EA060195F044
:10069000000F18BF704703F00046520043EB0303FE
:1006A00013F4801F08BF013DF7D043EA06037047EB
:1006B00094EA0C0F0CEA135518BF95EA0C0F0CD0F6
:1006C00050EA410618BF52EA4306D1D181EA03013C
:1006D00001F000414FF0000070BD50EA410606BF36
:1006E0001046194652EA430619D094EA0C0F02D17B
:1006F00050EA013613D195EA0C0F05D152EA0336C0
:100700001CBF104619460AD181EA030101F00041DD
:1007100041F0FE4141F470014FF0000070BD41F026
:10072000FE4141F4780170BD70B54FF0FF0C4CF400
:10073000E06C1CEA11541DBF1CEA135594EA0C0F1F
:1007400095EA0C0F00F0A7F8A4EB050481EA030E6C
:1007500052EA03354FEA013100F088804FEA033353
:100760004FF0805545EA131343EA12634FEA022221
:1007700045EA111545EA10654FEA00260EF00041E2
:100780009D4208BF964244F1FD0404F5407402D234
:100790005B084FEA3202B61A65EB03055B084FEAC5
:1007A00032024FF480104FF4002CB6EB020E75EBC2
:1007B000030E22BFB61A754640EA0C005B084FEAEA
:1007C0003202B6EB020E75EB030E22BFB61A754667
:1007D00040EA5C005B084FEA3202B6EB020E75EBB2
:1007E000030E22BFB61A754640EA9C005B084FEA2A
:1007F0003202B6EB020E75EB030E22BFB61A754637
:1008000040EADC0055EA060E18D04FEA051545EA25
:1008100016754FEA06164FEAC30343EA52734FEACE
:10082000C2025FEA1C1CC0D111F4801F0BD141EA47
:1008300000014FF000004FF0004CB6E711F4801FAC
:1008400004BF01430020B4F1FD0C88BFBCF5E06F8C
:100850003FF6AFAEB5EB030C04BFB6EB020C5FEA9C
:10086000500C50F1000041EB045170BD0EF0004EF1
:100870004EEA113114EB5C04C2BFD4EB0C0541EA23
:10088000045170BD41F480114FF0000E013C90E620
:1008900045EA060E8DE60CEA135594EA0C0F08BFE4
:1008A00095EA0C0F3FF43BAF94EA0C0F0AD150EAE3
:1008B00001347FF434AF95EA0C0F7FF425AF104676
:1008C00019462CE795EA0C0F06D152EA03353FF49E
:1008D000FDAE1046194622E750EA410618BF52EA1B
:1008E00043067FF4C5AE50EA41047FF40DAF52EAEF
:1008F00043057FF4EBAE12E74FF0FF3C06E000BF8C
:100900004FF0010C02E000BF4FF0010C4DF804CD98
:100910004FEA410C7FEA6C5C4FEA430C18BF7FEA58
:100920006C5C1BD001B050EA410C0CBF52EA430C86
:1009300091EA030F02BF90EA020F0020704710F106
:10094000000F91EA030F58BF994208BF90422CBF95
:10095000D8176FEAE37040F0010070474FEA410C8E
:100960007FEA6C5C02D150EA013C07D14FEA430CAC
:100970007FEA6C5CD6D152EA033CD3D05DF8040B1D
:10098000704700BF8446104662468C46194663464F
:1009900000E000BF01B5FFF7B7FF002848BF10F126
:1009A000000F01BD4DF808EDFFF7F4FF0CBF01206B
:1009B00000205DF808FB00BF4DF808EDFFF7EAFFE7
:1009C00034BF012000205DF808FB00BF4DF808EDA2
:1009D000FFF7E0FF94BF012000205DF808FB00BF97
:1009E0004DF808EDFFF7CEFF94BF012000205DF821
:1009F00008FB00BF4DF808EDFFF7C4FF34BF01202E
:100A000000205DF808FB00BF4A0011D212F5001269
:100A100011D20DD56FF47873B3EB62520ED44FEA56
:100A2000C12343F0004343EA505323FA02F07047D6
:100A30004FF00000704750EA013002D14FF0FF3014
:100A400070474FF0000070474FEA4102B2F1E043B7
:100A500024BFB3F5001CDCF1FE5C0DD901F0004CA5
:100A60004FEAC0024CEA5070B2F1004F40EB8300F5
:100A700008BF20F00100704711F0804F21D113F121
:100A80003872BCBF01F00040704741F480114FEA5A
:100A90005252C2F11802C2F1200C10FA0CF320FAE3
:100AA00002F018BF40F001004FEAC1234FEAD32300
:100AB00003FA0CFC40EA0C0023FA02F34FEA43036A
:100AC000CCE77FEA625307D150EA01331EBF4FF0F3
:100AD000FE4040F44000704701F0004040F0FE400E
:100AE00040F40000704700BF80F0004002E000BF0B
:100AF00081F0004142001FBF5FEA410392EA030F09
:100B00007FEA226C7FEA236C6AD04FEA1262D2EB52
:100B10001363C1BFD218414048404140B8BF5B4257
:100B2000192B88BF704710F0004F40F4000020F0F0
:100B30007F4018BF404211F0004F41F4000121F006
:100B40007F4118BF494292EA030F3FD0A2F1010250
:100B500041FA03FC10EB0C00C3F1200301FA03F18E
:100B600000F0004302D5494260EB4000B0F5000FB1
:100B700013D3B0F1807F06D340084FEA310102F170
:100B80000102FE2A51D2B1F1004F40EBC25008BF22
:100B900020F0010040EA03007047490040EB0000EC
:100BA00010F4000FA2F10102EDD1B0FA80FCACF11B
:100BB000080CB2EB0C0200FA0CF0AABF00EBC2501A
:100BC00052421843BCBFD0401843704792F0000F08
:100BD00081F4000106BF80F400000132013BB5E75B
:100BE0004FEA41037FEA226C18BF7FEA236C21D0D1
:100BF00092EA030F04D092F0000F08BF0846704736
:100C000090EA010F1CBF0020704712F07F4F04D103
:100C1000400028BF40F00040704712F100723CBF16
:100C200000F50000704700F0004343F0FE4040F440
:100C3000000070477FEA226216BF08467FEA2363FE
:100C40000146420206BF5FEA412390EA010F40F4E9
:100C5000800070474FF0000304E000BF10F0004335
:100C600048BF40425FEA000C08BF704743F096431C
:100C700001464FF000001CE050EA010208BF704737
:100C80004FF000030AE000BF50EA010208BF7047BE
:100C900011F0004302D5404261EB41015FEA010CD3
:100CA00002BF84460146002043F0B64308BFA3F1CB
:100CB0008053A3F50003BCFA8CF2083AA3EBC253AD
:100CC00010DB01FA02FC634400FA02FCC2F12002CC
:100CD000BCF1004F20FA02F243EB020008BF20F003
:100CE0000100704702F1200201FA02FCC2F1200269
:100CF00050EA4C0021FA02F243EB020008BF20EA5E
:100D0000DC7070474FF0FF0C1CEAD0521EBF1CEA8B
:100D1000D15392EA0C0F93EA0C0F6FD01A4480EA79
:100D2000010C400218BF5FEA41211ED04FF0006362
:100D300043EA501043EA5111A0FB01310CF000408E
:100D4000B1F5000F3EBF490041EAD3715B0040EAB4
:100D5000010062F17F02FD2A1DD8B3F1004F40EB84
:100D6000C25008BF20F00100704790F0000F0CF057
:100D7000004C08BF49024CEA502040EA51207F3A1B
:100D8000C2BFD2F1FF0340EAC250704740F40000F6
:100D90004FF00003013A5DDC12F1190FDCBF00F0E7
:100DA00000407047C2F10002410021FA02F1C2F195
:100DB000200200FA02FC5FEA310040F1000053EA31
:100DC0004C0308BF20EADC70704792F0000F00F07F
:100DD000004C02BF400010F4000F013AF9D040EA85
:100DE0000C0093F0000F01F0004C02BF490011F419
:100DF000000F013BF9D041EA0C018FE70CEAD15317
:100E000092EA0C0F18BF93EA0C0F0AD030F0004C96
:100E100018BF31F0004CD8D180EA010000F000404A
:100E2000704790F0000F17BF90F0004F084691F008
:100E3000000F91F0004F14D092EA0C0F01D1420242
:100E40000FD193EA0C0F03D14B0218BF084608D10B
:100E500080EA010000F0004040F0FE4040F4000055
:100E6000704740F0FE4040F4400070474FF0FF0CE8
:100E70001CEAD0521EBF1CEAD15392EA0C0F93EA2F
:100E80000C0F69D0A2EB030280EA010C49024FEA81
:100E9000402037D04FF0805343EA111143EA10133A
:100EA0000CF000408B4238BF5B0042F17D024FF4F2
:100EB000000C8B4224BF5B1A40EA0C00B3EB510FCD
:100EC00024BFA3EB510340EA5C00B3EB910F24BFB6
:100ED000A3EB910340EA9C00B3EBD10F24BFA3EB3B
:100EE000D10340EADC001B0118BF5FEA1C1CE0D103
:100EF000FD2A3FF650AF8B4240EBC25008BF20F0B6
:100F0000010070470CF0004C4CEA50207F32C2BF09
:100F1000D2F1FF0340EAC250704740F400004FF0A6
:100F20000003013A37E792F0000F00F0004C02BFD7
:100F3000400010F4000F013AF9D040EA0C0093F0A1
:100F4000000F01F0004C02BF490011F4000F013BFB
:100F5000F9D041EA0C0195E70CEAD15392EA0C0F63
:100F600008D142027FF47DAF93EA0C0F7FF470AF9B
:100F7000084676E793EA0C0F04D14B023FF44CAFDE
:100F800008466EE730F0004C18BF31F0004CCAD173
:100F900030F000427FF45CAF31F000437FF43CAFAF
:100FA0005FE700BF4FF0FF3C06E000BF4FF0010CD1
:100FB00002E000BF4FF0010C4DF804CD4FEA4002B3
:100FC0004FEA41037FEA226C18BF7FEA236C11D0FD
:100FD00001B052EA530C18BF90EA010F58BFB2EBB0
:100FE000030088BFC81738BF6FEAE17018BF40F030
:100FF000010070477FEA226C02D15FEA402C05D1E4
:101000007FEA236CE4D15FEA412CE1D05DF8040B68
:10101000704700BF844608466146FFE70FB5FFF7FB
:10102000C9FF002848BF10F1000F0FBD4DF808EDB3
:10103000FFF7F4FF0CBF012000205DF808FB00BFA4
:101040004DF808EDFFF7EAFF34BF012000205DF8FE
:1010500008FB00BF4DF808EDFFF7E0FF94BF01204B
:1010600000205DF808FB00BF4DF808EDFFF7D2FF48
:1010700094BF012000205DF808FB00BF4DF808ED8B
:10108000FFF7C8FF34BF012000205DF808FB00BF58
:101090004FEA4002B2F1FE4F0FD34FF09E03B3EB85
:1010A00012620DD94FEA002343F0004310F0004FC5
:1010B00023FA02F018BF404270474FF0000070471B
:1010C00012F1610F01D1420205D110F0004008BFBA
:1010D0006FF0004070474FF00000704742000ED2A2
:1010E000B2F1FE4F0BD34FF09E03B3EB126209D463
:1010F0004FEA002343F0004323FA02F070474FF019
:101100000000704712F1610F01D1420202D14FF08D
:10111000FF3070474FF00000704700BF10B500214E
:101120000446FFF78DFF20B92046BDE8104000F0CF
:1011300009B804F1004000F005F8404261EB4101BC
:1011400010BD00BFD0B5FFF771F900230022C3F630
:10115000F05306460F46FFF7BDF9FFF755FC04466E
:10116000FFF742F900230022C4F2F013FFF7B2F9AF
:1011700002460B4630463946FEF7F8FFFFF744FCBF
:101180000022024310462146D0BD00BF2DE9F041A8
:10119000047890B000340546334818BF01240FF09E
:1011A000EBF9324B00260093314BB44201930CBF54
:1011B0002346802305934FF4807306934FF4806396
:1011C0000CBF4FF001084FF002080793202308934B
:1011D00025484FF40053694609930296CDF80C80D8
:1011E00004960A960FF046FA1F4801210FF060FAA4
:1011F00001274FF460231F480BA90D930B968DF820
:1012000030408DF831700E968DF83C800FF014F957
:10121000184804213A4603230FF05FF92CB12978CE
:101220001448022203230FF058F9124801210FF04D
:1012300030F9104801210FF023F90E480FF032F970
:101240000C480FF034F90028FAD10A480FF033F9AE
:1012500008480FF035F90028FAD1064801210FF0AF
:1012600033F910B0BDE8F081080002404C24014081
:10127000AC04002000240140024B33F8100080B27F
:10128000704700BFAC040020704713B50622044627
:101290006B46532032210DF041FA9DF801209DF854
:1012A000003043EA022323809DF803209DF802309A
:1012B00043EA022363809DF805209DF8043043EA49
:1012C0000223A3801CBD08B52D21082253200DF058
:1012D000E1FA31210A2253200DF0DCFA53202C21AF
:1012E0000A22BDE808400DF0D5BA000037B50F4B13
:1012F00000241A680E4B05469A428DF8074013D019
:101300005320214601220DF107030DF007FA60B1C9
:101310009DF80730E52B07D1064B01202B60064BCB
:101320006B60064BAB6000E020463EBD3C000020F9
:10133000001BB700C71200088B12000889120008B2
:101340002DE9F84F6A4C6B4B18886389C01A2389C2
:101350005843FFF783FC4FF06051FFF7D3FC05467D
:10136000B4F91200C002FFF779FC0646B4F9140084
:10137000FFF774FC01462846FFF7BCFB01463046E8
:10138000FFF774FD01462846FFF7B4FB5A490546AE
:10139000FFF7B8FC594B5A4918602846FFF7A8FBDD
:1013A00005462946FFF7AEFC4FF06651FFF7AAFC51
:1013B0000646E088FFF74EFC0746B4F90400FFF745
:1013C0004DFC01462846FFF79DFC4FF06451FFF7A6
:1013D00099FC8346B4F90C00FFF740FC0146304607
:1013E000FFF790FC4FF05E51FFF78CFC014658462A
:1013F000FFF780FB4FF07A51FFF784FC4FF08E41EE
:10140000FFF778FB01463846FFF77CFC4FF0605150
:10141000FFF778FC0021B4F80E90B4F80280B4F81D
:1014200000A001270446FFF701FE00B1002717F0D6
:10143000FF0F5AD0334B1868FFF70CFC07460FFA22
:101440008AF0FFF70BFC4FF08241FFF75BFC82460E
:101450000FFA89F0FFF702FC01463046FFF752FC15
:1014600006460FFA88F0FFF7F9FB01462846FFF71A
:1014700049FC01463046FFF73DFB4FF06A51FFF74C
:1014800041FC01465046FFF735FB01463846FFF761
:101490002FFB1D49FFF736FC2146FFF7E7FC1B49F0
:1014A00020F00040FFF72EFC4FF06E510446FFF78E
:1014B00029FC0146FFF726FC1549FFF723FC1549D7
:1014C00005462046FFF71EFC01462846FFF712FBA3
:1014D0001149FFF70FFB4FF07651FFF713FC014660
:1014E0002046FFF707FBBDE8F88F0020BDE8F88F26
:1014F000B0040020D2040020CDCCCC3BFC1A00204C
:1015000000007A45CC0400200000C8420000FA42E6
:1015100000E03D3D00E8E5BD00F06C4507B5032265
:1015200001AB7720F6210DF0F9F89DF805209DF824
:101530000430120242EA03429DF806301A43024B7D
:1015400052091A600EBD00BFCC04002007B502226C
:1015500001AB7720F6210DF0E1F89DF805309DF8FC
:10156000042043EA0222014B1A800EBDD20400205F
:10157000F42177200A460DF08DB97720F4212E2230
:101580000DF088B908B54FF480400FF0EDF8012850
:1015900005D14FF48040BDE808400FF0F3B808BD16
:1015A0002DE9F0476C4B8CB01A686C4B05469A429B
:1015B00000F0CB80DFF8C4A19AF80090B9F1000FD9
:1015C00040F0C580664F022610234FF4005838467D
:1015D00009A94FF480448DF827608DF82630ADF8C6
:1015E00024800CF01BFE0423384609A98DF8263010
:1015F000ADF824400CF012FE0E213046C7F81080E2
:101600000CF048FE0126082307A807948DF8213026
:101610008DF820908DF822600FF06AF828238DF85D
:1016200028300AA80F238DF829308DF82A308DF83C
:101630002B600EF0CFFE14200DF0D9F97720D021C9
:101640000DF12F0332460DF069F89DF82F30454C0F
:10165000552BE37575D1D12132460DF12F0377203B
:101660000DF05CF89DF82F30772003F00F021B0976
:1016700022766376162201ABAA210DF04FF89DF871
:1016800004209DF80530304643EA022323809DF86C
:1016900006209DF8073043EA022363809DF8082066
:1016A0009DF8093043EA0223A3809DF80A209DF8A3
:1016B0000B3043EA0223E3809DF80C209DF80D30A7
:1016C00043EA022323819DF80E209DF80F3043EA60
:1016D000022363819DF810209DF8113043EA022314
:1016E000A3819DF812209DF8133043EA0223E38181
:1016F0009DF814209DF8153043EA022323829DF8BB
:1017000016209DF8173043EA022363829DF81820C3
:101710009DF8193043EA0223A38241F294138AF818
:1017200000602B8045F2E4736B800F4B2E71AB6031
:101730000E4BEB600E4B2B610E4B6B610E4BAB6196
:1017400006E0C7F81480484602E0002000E00120CF
:101750000CB0BDE8F08700BF3C000020001BB700C4
:1017600000100140B00400207B1500084D15000852
:10177000711500081D15000841130008D004002051
:101780002DE9F34D4E494F4B48891B688C89000267
:10179000181AA4FB0023C71704FB0733D60D46EA2B
:1017A00043268B884FF0000B4FEA034A0B8906F55E
:1017B000FA68A3FB004503FB0755E20942EA4562CC
:1017C000EB111AEB02044BEB03054B88CDE9004506
:1017D0004FEAC33ACB884FF0000BA3FB004503FB55
:1017E0000755220A42EA05622B121AEB020A4BEB5A
:1017F000030BB8F5FA6F33DA80FB0001C50F3046F2
:1018000045EA4105FFF72AFA0146FFF77BFA2E4920
:101810000746FFF777FA2D4904463846FFF772FA74
:101820002B4B074698451EDA06F55A6606F10C0062
:10183000FFF714FA0146FFF765FA26490646FFF757
:1018400061FA01462046FFF755F923490446304620
:10185000FFF758FA01463846FFF74CF9074602E011
:1018600000273C460025C5EB0800FFF7F7F91B49A8
:10187000FFF748FA1A4B18601A4B38461D68FFF7F5
:101880004DFCBAEB00006BEB0101A5FB002305FB4F
:101890000133560D20465F1546EAC326FFF73EFC8E
:1018A000DDE90023101A63EB0101361A67EB01072B
:1018B000F00B40EA4740F913FFF7E6F9BDE8FC8D6D
:1018C000DC040020D8040020000020400000A03FDD
:1018D00024FAFFFF0000E0400000B0400AD7233C9C
:1018E000FC1A0020D404002007B5772001AB0021AA
:1018F00003220CF013FF9DF805009DF80430000250
:1019000040EA03409DF8063018430EBD08B5FFF7C6
:10191000EBFF08B1014B186008BD00BFD4040020E4
:1019200008B5FFF7E1FF08B1014B186008BD00BF23
:10193000D80400207720482101220CF0ABBF77208B
:10194000582101220CF0A6BF4E4B2DE9F3411A6835
:101950004D4B04469A420FD04C4D02234FF4005693
:101960008DF80330284610236946ADF800608DF8E5
:1019700002300CF053FC6E617720A02101220DF1A2
:1019800007030CF0CBFE002879D0414E00256420DF
:101990000DF02DF81E21012277200CF07BFF4FF077
:1019A000000864200DF023F88DF807801CE00A2061
:1019B0008DF800808DF801800DF019F879B2503162
:1019C0004900022200ABC9B277200CF0A7FE9DF8B7
:1019D00000209DF8013043EA022326F817309DF8D5
:1019E000073001338DF807309DF80770072FDED9D7
:1019F00001353220EDB20CF0FAFF0A2D2BD0F3891D
:101A0000002203F00F0723F0FF03F3811146134672
:101A1000C2F3460036F8100012F0010F40EA01014F
:101A20001ABFC0B2434083EA1023082013F4004FCA
:101A30004FEA43031CBF83F440539BB20138C0B24A
:101A40009BB20028F2D10132102AE1D1B7EB133F4B
:101A50009DD100299BD042F2503323806380022322
:101A600023710C4BB5F10A00A3600B4B18BF01208A
:101A7000E3600A4B23610A4B63610A4BA361BDE833
:101A8000FC8100BF3C000020001BB700001001409B
:101A9000DC0400203F19000821190008351900084E
:101AA0000D1900088117000808B50CF075FF094BE7
:101AB0001A682AB11B68C01A074B984203D808BDA0
:101AC000064B984205D9082005F0F2FB044B002292
:101AD0001A7008BDF4040020E0930400002D3101C9
:101AE0000C0B002013B504460CF070FF154B1A6860
:101AF0006432904224D31860FFF7D6FF00200CF028
:101B000027FF7020FF21022201AB0CF007FE88B1F5
:101B10009DF804209DF8053043EA02231BB22360A0
:101B20000CF03AFF084BFF211860512270200CF096
:101B3000B1FE00E0206001200CF00AFF012000E06F
:101B400000201CBDEC040020F404002013B5044662
:101B50000CF03CFF124B1A68463290421ED31860BC
:101B6000FFF7A2FF022170200A4601AB0CF0D6FD60
:101B700088B19DF804209DF8053043EA02231BB28A
:101B800023600CF009FF074B0021186051227020E0
:101B90000CF080FE00E02060012000E000201CBD71
:101BA000EC040020F404002010B504460CF00EFFF5
:101BB000084B1A68643290420AD31860064B1A68C0
:101BC0003A2392FBF3F32360FFF76EFF012010BD71
:101BD000002010BDEC0400200805002013B50446C9
:101BE0000CF0F4FE114B1A68463290421CD3186078
:101BF000FFF75AFF20203221022201AB0CF08EFDAC
:101C000078B19DF805209DF8043043EA02231BB209
:101C10003A2293FBF2F323600CF0BEFE044B1860F3
:101C200000E02060012000E000201CBDEC0400204A
:101C3000F404002038B504460CF0C8FE0D4B1A68B9
:101C40003C32904213D318600B4B0C4D1A683A2368
:101C500092FBF3F323602B88094C0B2023610CF0DB
:101C6000BBFE2B886361FFF71FFF012038BD0020FA
:101C700038BD00BFEC04002008050020040500204A
:101C8000000C014008B5114B18680EF07BFD0CF0FC
:101C900083FE0F4B0F4A10491860926809881B6831
:101CA00011420E4A01D0136008BD11680C4A5B1A3C
:101CB000AE2B04D90B480088834200D201B900231F
:101CC0001360064B00221A6008BD00BF000500200B
:101CD000F4040020000C0140F2040020F80400206D
:101CE00008050020F0040020FFF7CCBFFFF7CABFB3
:101CF00030B57D4B4FF230221A807C4A85B092F885
:101D0000A821062A63D8DFE802F004213807243C22
:101D10004C0045F6C0521A80754B1B78042B00F21C
:101D2000E180102005F0D2FA002840F0DB80714BF2
:101D30004FF480721A80704A4FF4007313806F4A18
:101D400013606F4B09221A70172213E045F6C05238
:101D50001A80012005F0BAFA002800F0C380654A15
:101D600001236549138002220A8064490A60644A9B
:101D700013700722634B1A7029E0202032210222BF
:101D80000AE00021512270200CF084FD46200CF066
:101D90002EFE022170200A4603AB0CF0BFFC044665
:101DA00050E000200CF0D4FDFF21512270200CF0F7
:101DB00071FD46200CF01BFE7020FF21022203ABB8
:101DC0000CF0ACFC044601200CF0C2FD3AE0494B9B
:101DD00010241B884C48ADF8083002A902238DF866
:101DE0000A408DF80B300CF019FA434B46481B881B
:101DF00002A9ADF8083004238DF80A300CF00EFA71
:101E00003F4B3E4D197801200CF044FA28680EF043
:101E1000B9FC2B688DF80540009301240023684627
:101E20008DF804308DF806400EF062FC354B374AD1
:101E30001B7859B203F01F0304FA03F4490942F86E
:101E4000214001E0002C4DD0284B93F8A901B3F8B4
:101E5000AA21904204D3322283F8A92164221FE0F0
:101E600093F8A81106291DD8012449B204FA01F1FA
:101E700011F0580F09D188060DD4490712D0B2F5D8
:101E8000C87F28BF4FF4C8720AE01E2838BF1E2042
:101E900083F8A90106E0B2F5167F28BF4FF4167249
:101EA000A3F8AA21114B93F8A831062B10D8DFE82C
:101EB00003F004040608080A0C00154A06E0154A57
:101EC00004E0154A02E0154A00E0154A154B1A6075
:101ED000082005F0E5F9144B4FF0FF321A60134B60
:101EE00000221A7005B030BDF0040020080F002059
:101EF000CE1B002004050020F20400200005002075
:101F0000FD040020FC040020000C014000E100E082
:101F1000351C0008DD1B0008A91B00084D1B00082C
:101F2000E51A00080C050020941A00200C0B002074
:101F300007B5034B01A81B68984700B101980EBD77
:101F40000C05002007B51E200A21032201AB0CF06E
:101F5000E5FB80B19DF80430482B0BD19DF805308E
:101F6000342B07D19DF80600A0F13303584240EB13
:101F7000030000E000200EBD13B506220446032135
:101F80006B461E200CF0CAFB9DF801309DF8002026
:101F90009DF8021043EA02229DF803309DF80400E8
:101FA00043EA01239DF80510228041EA00210848F8
:101FB000A380618090F9760020B1022021460AF0CA
:101FC0004BFD04E052425B4221806280A3801CBD35
:101FD000080F00202DE9F04F00238BB0774A0193C2
:101FE0000293039304AB074607CA83E80700744BC8
:101FF00001221A70734B744A1B6893420CD14FF440
:102000008053ADF8243002238DF8273004238DF857
:1020100026306E4809A908E06D4A934207D10AA903
:102020004FF480436B4821F8043D0CF0F7F864202E
:102030000CF0DDFC00211E2011220CF02BFC664B65
:102040001E2093F86530012123B160220CF022FCA0
:10205000624E03E020220CF01DFC614E052464203A
:10206000013C0CF0C4FCE4B207A8FFF785FF002C8C
:10207000F5D10A2440F2FE75022101221E200CF047
:1020800009FC64200CF0B3FC07A8FFF775FF4C4B6C
:102090000DF11A0A93F800904FF000083AF9020F78
:1020A0000DF1040B80EAE073A3EBE073AB42C8BF11
:1020B0004FF00009FEF7D2FD014658F80B00FEF77D
:1020C00019FD48F80B0008F10408B8F10C0FE5D130
:1020D0003B4B013C83F800903C4BE4B2DA6882F061
:1020E0001002DA60002CC7D121461E2012220CF00B
:1020F000D1FB0A2440F2FE78022101221E200CF0BE
:10210000C9FB64200CF073FC07A8FFF735FF2C4BCC
:102110000DF11A0A93F8009000253AF9020F0DF11B
:10212000040B80EAE073A3EBE0734345C8BF4FF0B4
:102130000009FEF793FD014655F80B00FEF7D8FCA9
:1021400045F80B0004350C2DE7D11D4D1F4B85F8CC
:102150000090DA68013C82F01002E4B2DA60002CF0
:10216000CAD1214678221E200CF094FB01212022A6
:102170001E200CF08FFB022122461E200CF08AFB51
:1021800064200CF034FC95F800804FF07E55B8F1D7
:10219000000F0CD004ABE1583046FEF7B3FD01ABA5
:1021A000E158FEF763FE20F00040385100E03D5159
:1021B00004340C2CEBD10BB0BDE8F08F5C4401086B
:1021C000DC0E00203C00002000127A00000C0140D0
:1021D000001BB70000100140080F002000404E46D1
:1021E000002080461FB5384C2378BBB97A238DF880
:1021F0000430364B36481968FEF77AFC4FF07C51B4
:10220000FEF780FDFEF76AFF01AB8DF80500FF21A8
:102210006D2002220CF0E0FA012353E0012B3BD1A8
:102220002C4C792320688DF80430FEF731FF6FF4D1
:10223000637300B2984209DB40F28D33984207DCA9
:102240000A2390FBF3F35A33DBB202E0002300E0F1
:10225000B42360688DF80530FEF71AFF6FF46373DE
:1022600000B2984209DB40F28D33984207DC0A2322
:1022700090FBF3F35A33DBB202E0002300E0B42317
:102280008DF80630032201AB6D20FF210CF0A4FA7B
:102290000D4B02221A7016E0022B14D164238DF824
:1022A000043001238DF805300B4B5B78003318BFE9
:1022B00001238DF806306D2001ABFF2103220CF0C5
:1022C0008BFA002323701FBD10050020940A002004
:1022D00000003443300900201A1B002007B56B238F
:1022E0008DF804300A238DF805308DF806306D2006
:1022F000FF21032201AB0CF06FFA0EBD03885B4295
:10230000038043885B424380704713B5062204462E
:102310006B461C2001210CF001FA9DF800209DF86D
:10232000013043EA022343F30B139DF8022023807C
:102330009DF8033043EA022343F30B1363809DF8B7
:1023400004209DF8053043EA022343F30B13A380D6
:102350001CBD000013B52023ADF8043004230DEBA1
:102360000301022417488DF806308DF807400BF062
:1023700055FF2A2100221C200CF08CFA22460E2147
:102380001C200CF087FA0F2103221C200CF082FA8B
:102390002B2112221C200CF07DFA22462C211C201D
:1023A0000CF078FA2D2101221C200CF073FA2E215A
:1023B00000221C200CF06EFA2A2105221C200CF0B1
:1023C00069FA1CBD0008014037B5104B00241A689B
:1023D0000F4B05469A428DF8074015D01C200D2161
:1023E00001220DF107030CF099F970B19DF8073047
:1023F0002A2B01D01A2B07D1064B01202B60064B4C
:102400006B60064BAB6000E020463EBD3C00002008
:10241000001BB700552300080B230008FD2200080D
:1024200083885B428380704713B502221B210446D8
:1024300001AB68200CF072F99DF805309DF804009E
:1024400043EA002000B2FEF709FC0549FEF752FB03
:102450000449FEF70BFD0449FEF74CFB20601CBD50
:1024600000404E4600008C4300000C4213B506228B
:1024700004466B4668201D210CF050F99DF80020A1
:102480009DF8013043EA022323809DF802209DF845
:10249000033043EA022363809DF804209DF8053051
:1024A00043EA0223A3801CBD192008B50CF09FFA53
:1024B0006820152100220CF0EDF910B903200CF072
:1024C000D3FA0C4B16211A78682042F018020CF04F
:1024D000E1F91721002268200CF0DCF93D210122EE
:1024E00068200CF0D7F968203E210122BDE80840A1
:1024F0000CF0D0B90000002010B5044619200CF0F3
:1025000076FA6820152100220CF0C4F940B1054B81
:1025100001202360044B6360044BA360044BE36021
:1025200010BD00BFA92400086D2400082124000864
:1025300029240008164AB2F8803011462A2B17D0F9
:10254000144A04D80A2B19D0142B0ED114E0BC2B3A
:1025500007D0B3F5807F02D0622B06D103E00023C1
:102560000DE001230BE0022309E02A23A1F88030CB
:10257000084B03221A7003E0042300E005231370C4
:10258000044B68201A78162142F018020CF082B928
:10259000080F0020000000207047038842885B423B
:1025A00002804380704783885B42838070470000CD
:1025B00013B502224121044601AB68200CF0AEF8AD
:1025C0009DF805309DF8040043EA002000B2FEF7B4
:1025D00045FB0449FEF74AFC0349FEF78BFA2060ED
:1025E0001CBD00BF0000AA43B81E124213B506224C
:1025F00004466B46682043210CF090F89DF80020BB
:102600009DF8013043EA022323809DF802209DF8C3
:10261000033043EA022363809DF804209DF80530CF
:1026200043EA0223A3801CBD13B5062204466B4671
:1026300068203B210CF072F89DF800209DF80130D5
:1026400043EA022323809DF802209DF8033043EAE9
:10265000022363809DF804209DF8053043EA02239D
:10266000A3801CBD07B54FF40053ADF8043002231E
:102670008DF8073004238DF806302D4B2D4A1B684A
:10268000934201D12C4803E02C4A934203D12C48B9
:1026900001A90BF0C3FD6B21802268200CF0FAF831
:1026A00005200CF0A4F91921002268200CF0F2F8A2
:1026B0006B21032268200CF0EDF8022268203721FC
:1026C0000CF0E8F81F4AB2F880302A2B1FD006D849
:1026D0000A2B18D0142B14D0052B0ED115E0BC2BCF
:1026E00007D0B3F5807F02D0622B06D103E0002231
:1026F0000EE001220CE002220AE02A23A2F8803038
:1027000005E0042204E0052202E0062200E00322A4
:102710001A2168200CF0BEF81B21182268200CF04A
:10272000B9F868201C2110220CF0B4F80EBD00BFCF
:102730003C00002000127A00000C0140001BB70092
:1027400000100140080F002037B5054623200C4635
:102750000CF04DF96820752101220DF107030BF0F3
:10276000DDFFA0B19DF80730682B0FD1084B012089
:102770002B60084B6B60084BAB60084B2360084B29
:102780006360084BA360084BE36000E000203EBD9F
:1027900099250008292600089B25000865260008C1
:1027A000ED250008A7250008B12500087FB50546DE
:1027B00014460E460E223B216B4668200BF0AEFFFE
:1027C0009DF800209DF801309DF8060043EA0223A1
:1027D0002B809DF802209DF8033043EA02236B8092
:1027E0009DF804209DF8053043EA0223AB809DF854
:1027F000073043EA002000B2FEF730FA0E49FEF738
:1028000035FB0E49FEF776F99DF808209DF8093052
:10281000306043EA022323809DF80A209DF80B30A4
:1028200043EA022363809DF80C209DF80D3043EAB3
:102830000223A3807FBD00BF0000AA43B81E12423E
:1028400003885B42038083885B428380704713B5B3
:10285000062204466B46682028210BF05FFF9DF896
:1028600000209DF8013043EA022363809DF8022096
:102870009DF8033043EA022323809DF804209DF84D
:10288000053043EA0223A3801CBD0000642008B584
:102890000CF0ADF868202321F0220BF0FBFF10B9FB
:1028A00003200CF0E1F805200CF0A1F8044B68209F
:1028B0001A78202142F00F02BDE808400BF0EABF71
:1028C0001105002013B5044619200CF090F868207B
:1028D0000F2101220DF107030BF020FF9DF80730B7
:1028E000D32B07D1044B01202360044B6360044BBE
:1028F000A36000E000201CBD8D2800084F280008C0
:1029000041280008124AB2F880301146362B0ED00A
:10291000104A02D8202B07D104E04E2B0BD05D2BA0
:1029200002D10AE0002309E03623A1F88030094BE8
:1029300040221A7003E0802300E0C0231370054B8F
:1029400068201A78202142F00F020BF0A3BF00BFCD
:10295000080F00201105002030B585B0044601A8FD
:102960000D460EF0B1FA0B4B013D1A680A4B20469A
:10297000B2FBF3F3013BADF8043001A90023ADF83D
:102980000850ADF80A30ADF806300EF055F905B034
:1029900030BD00BF4000002040420F007FB504461C
:1029A00001A80D4616460EF0A2FA0123ADF8083034
:1029B0002046002301A9ADF80450ADF80660ADF83B
:1029C0000A30ADF80C300EF011FB7FBD2DE9F74F4A
:1029D0002C4B1427474300011C581D188A462046DB
:1029E0004FF6FF719346FFF7B7FFAB686868282280
:1029F000ADF80030694602238DF8033005F108096F
:102A00008DF802200BF00AFC2D7B0022204629467F
:102A1000FFF7C4FF204601210EF071FA99F8053046
:102A2000DFF864808DF8043000238DF8053008EB62
:102A30000706012301A88DF806308DF807300DF048
:102A4000C9FC48F807A086F80AB00C2D16D8DFE8B4
:102A500005F0071515150A1515150D151515100096
:102A60002046022107E02046042104E020460821F8
:102A700001E02046102101220EF05BFA3046BDE84D
:102A8000FE8F00BF9844010828050020114A124813
:102A900013881180C91A038089B240F68C239942A9
:102AA0000E4B02D900221A707047A1F53A72073A0C
:102AB00092B240F2DA50824205D81A78092A9CBFB5
:102AC000074820F812101A7801321A70054B0022BC
:102AD0001A8070478C060020420600202605002040
:102AE00012050020620B0020154B142210B502FBCA
:102AF000003202F10803DC7864B901229980DA70AF
:102B0000104B00011A18117B18580222BDE8104022
:102B1000FFF744BF9C88D980091B89B29C78118239
:102B2000094A000122F814100024DC70054B1A1821
:102B3000117B18582246FFF731FF044B1C8010BD53
:102B4000280500209844010812050020620B00208F
:102B500070B50D46022104460EF0EFFA012820461A
:102B60000BD102210EF0F4FA14226BB25343254A22
:102B70002046D6580EF0D4FA27E004210EF0DDFAF4
:102B800001280ED101352046EDB204210EF0E0FA05
:102B900014226BB253431B4A2046D6580EF0C3FA98
:102BA00013E0082120460EF0C8FA012811D10235A1
:102BB0002046EDB208210EF0CBFA14226BB253433B
:102BC000104A2046D6580EF0B1FA01462846B047C2
:102BD00070BD102120460EF0B0FA012810D1033547
:102BE0001021EDB220460EF0B3FA14226BB253431B
:102BF000044A2046D6580EF09CFA01462846B047B3
:102C000070BD00BF280500202DE9F047444BDFF8D8
:102C10001481142505FB0035030158F8034086B0E4
:102C200008EB030607462046FFF796FEB368706878
:102C300018224FF0020905A9ADF814308DF81620BE
:102C40008DF817900BF0EAFA01A806F1080A367B16
:102C50000EF043F97023ADF804300123ADF80630CF
:102C60000023ADF808304FF47A73ADF80A304FF412
:102C70008073ADF80C90ADF810300C2E2BD8DFE837
:102C800006F0072A2A2A102A2A2A192A2A2A220082
:102C9000204601A90EF01AF8204608210EF052F93C
:102CA00019E0204601A90EF055F8204608210EF043
:102CB00051F910E0204601A90EF090F820460821B5
:102CC0000EF052F907E0204601A90EF0C9F820469F
:102CD00008210EF051F908EB071898F80E301BB1D7
:102CE000204601210EF017F9204601210EF007F9C8
:102CF0000C2E10D8DFE806F0070F0F0F090F0F0F8B
:102D00000B0F0F0F0D00343404E0383402E03C3474
:102D100000E040346C60284606B0BDE8F08700BF94
:102D20002805002098440108022110B512480EF031
:102D300004FA012810480CD102210EF009FA0F4BB9
:102D40000D48D3F8A0400EF0EBF901460820A0474B
:102D500010BD10210EF0F1F901280CD11021064808
:102D60000EF0F6F9054B0448D3F8B4400EF0E1F943
:102D700001460920A04710BD002C01402805002075
:102D80004FF080400021FFF7E3BE0000014804211E
:102D9000FFF7DEBE0004004001480A21FFF7D8BE5D
:102DA000000800402DE9F84F4278437A0446002B92
:102DB00014BF022300231AB1002B14BF03230123E5
:102DC000434ADFF8288152F82390424FDFF820A1D0
:102DD000002519F80530FF2B76D0A27803F00F00FC
:102DE0001AB1821ED2B2012A6BD9A27A0AB18242EA
:102DF00067D0E2780AB1042863D022790AB10528A5
:102E00005FD0A27922B1A0F10C02D2B2012A58D926
:102E100062791AB1821FD2B2012A52D903F0F003AB
:102E200013F0300F03D02278002A08BF0023627A03
:102E30006AB9E2792AB1A0F10802D2B2012A98BF98
:102E40008023227A1AB1032801D907282CD9202BF4
:102E500010D002D8102B34D104E0402B13D0802B9B
:102E60002FD121E000221C49FFF7B0FD1B4B0822A7
:102E70001A7026E0194E1A493278FFF7A7FD337809
:102E8000013333701DE0A189164E97FBF1F189B231
:102E900096F800B0FFF7B8FE134B43F82B000BF188
:102EA000010B86F800B00CE0E18998F8006097FB10
:102EB000F1F189B2FFF7A8FE4AF82600013688F83A
:102EC000006001350E2D84D10020BDE8F88F00BFD1
:102ED0007845010840420F008D2A00084006002076
:102EE000E92A000868060020480600204406002061
:102EF0006C060020044B1B78834204D9034B53F823
:102F000020305B6819807047680600204806002062
:102F1000044B1B78834204D9034B53F820305B6881
:102F200019807047440600206C060020014B33F8DE
:102F3000100070471205002037B50C4B0C4D93F86C
:102F400093310C4C002B0CBF402380232B80ADF819
:102F5000043002238DF807302046102301A98DF894
:102F600006300BF05BF92B8863613EBD080F002033
:102F70008E06002000080140E8B1114B11491A7873
:102F800009780132D2B291421A7018D100221A7017
:102F90000D4A1378591C1170C3F34403012202FA3D
:102FA00003F30A4A12681342094A0A4B128814BFF3
:102FB0001A615A617047064B1A88064B5A6170476E
:102FC0009006002015000020910600201800002027
:102FD0008E060020000801404FF47A73B0FBF3F333
:102FE00042F210723033B0FBF2F06FF0090202FBD4
:102FF0000030C0B270476423B0FBF3F34FF47A7231
:103000003033B0FBF2F06FF0090202FB0030C0B2C7
:1030100070470A236422B0FBF3F33033B0FBF2F0C5
:103020006FF0090202FB0030C0B270470A2200F1C3
:103030003003B0FBF2F06FF0090202FB0030C0B2C7
:1030400070470000064B0246197839B1054B01293B
:103050000CBF8021002118780BF01CBC704700BF0A
:10306000DD0E00209C060020044B02461B7823B195
:10307000034B402118780BF00DBC7047DD0E00208B
:103080009C0600200D4B052202FB003170B5A039D3
:103090000B4810F0D3FE0A4C0A4D661D20782B78A1
:1030A000584004F8010BFFF7DFFFB442F6D1054B9F
:1030B0001878BDE87040FFF7D7BF00BF6046010831
:1030C000920600209E06002010B5044601E0FFF79E
:1030D000D9FF14F8010B0028F9D110BD10B5184B19
:1030E0001B78002B2BD0A620FFF7ACFFAE20FFF7FC
:1030F000A9FF2020FFF7A6FF0020FFF7A3FFB020C5
:10310000FFF7A0FF4020FFF79DFF0020FFF79AFF89
:103110001020FFF797FF4FF48064013C0020A4B219
:10312000FFF7A2FF002CF8D18120FFF78BFFC8200A
:10313000FFF788FFAF20BDE81040FFF783BF10BD49
:10314000DD0E002008B5084B1B785BB15038C0B2CB
:10315000FFF778FF0020FFF775FF1020BDE808405B
:10316000FFF770BF08BD00BFDD0E002007B53C2093
:10317000A02101220DF107030BF0D0FA28B1334B47
:103180003C221A700122324B0DE00DF107033D2065
:10319000A02101220BF0C2FA2D4B002854D02B4A5B
:1031A0003D21117002221A70AE20FFF74BFFD5208F
:1031B000FFF748FF8020FFF745FFA820FFF742FFF9
:1031C0003F20FFF73FFFD320FFF73CFF0020FFF732
:1031D00039FF4020FFF736FF8D20FFF733FF142023
:1031E000FFF730FF2020FFF72DFF0020FFF72AFF19
:1031F000A120FFF727FFC820FFF724FFDA20FFF701
:1032000021FF1220FFF71EFF8120FFF71BFFCF20B9
:10321000FFF718FFD920FFF715FFF120FFF712FF86
:10322000DB20FFF70FFF4020FFF70CFFA420FFF784
:1032300009FFA620FFF706FF14200BF0D8FB0120A2
:10324000FFF780FF012000E018700EBD9C060020F3
:10325000DD0E0020034B1B781BB10138C0B2FFF715
:1032600071BF7047DD0E002038B5104C00230546B5
:103270002370FFF77BFFB8B10DB101232370FFF777
:103280002DFF0120FFF7E6FF0948FFF71DFF032090
:10329000FFF7E0FF0748FFF717FF0420FFF7DAFF0B
:1032A0000548FFF711FF012038BD00BFDE0E0020EA
:1032B000A6450108B2450108C845010810B5074BED
:1032C00004461B784BB1FFF7C5FF05480BF0D4FF50
:1032D0002046BDE81040FFF7BDBF10BDDD0E002049
:1032E000DE4501082DE9F04F304B8FB01A780132DE
:1032F000D2B21D2A1A7040F2A0812D4C00221A7001
:103300002068FDF7C5FE2B4902B206A80BF0D2FFDC
:10331000294B93F86130BBB12068FDF7B9FE27490E
:1033200002B20CA80BF0C6FF9DF830308DF81E30AD
:103330009DF831308DF81F309DF832308DF82030F7
:103340009DF833308DF821300120FFF783FF06A868
:10335000FFF7BAFE1A4906A80BF0ACFF194B1C7810
:103360002046FFF748FE8DF81E002046FFF751FE6D
:103370008DF81F002046FFF759FE134B00211C68F3
:103380008DF821002046FDF75BFE002814BF2D209C
:1033900020208DF828002046FDF7A0FE632815D9CF
:1033A0006424B0FBF4F4A4B211E000BF9D06002039
:1033B000940A0020F5450108080F00200446010882
:1033C00008460108741B0020B41A0020002442F2B1
:1033D0001075B4FBF5F3303320468DF82930FFF734
:1033E000FBFD8DF82A002046FFF705FE8DF82B0027
:1033F0002046FFF70EFE8DF82C000220FFF72AFF73
:10340000DFF870B206A8FFF75FFE06A88C490BF044
:1034100051FFDBF80010DFF860A20029ACBF4E239B
:1034200053238DF81E30DFF8549291FBFAF33033BA
:10343000DFF84C828DF8203091FBF9F30A2491FBE0
:10344000F8F2303304FB02337E4F7F4E8DF821308B
:1034500091FBF7F391FBF6F2303304FB02338DF866
:1034600022307A4B7A4A91FBF3F091FBF2FE303036
:1034700004FB0E00DFF80CC28DF8240091FBFCF079
:10348000303002907348DDF808E091FBF0F004FB67
:1034900000EE019091FBF5F0303002906E488DF80F
:1034A00025E091FBF0FE0298049204FB0E0E8DF8CD
:1034B00026E04FF47A7E91FBFEF0303002906748B0
:1034C000059391FBF0FE0298CDF80CC004FB0E0EA4
:1034D0008DF827E04FF0640E91FBFEF03030029043
:1034E0005F4891FBF0FE029804FB0E0E91FBF4F096
:1034F000303002906FF063008DF828E091FBF0FE11
:10350000029804FB0E0E8DF829E06FF0090E01F110
:10351000300091FBFEF104FB010103208DF82A101D
:10352000FFF798FE06A8FFF7CFFD06A84D490BF060
:10353000C1FEDBF80410059B049A91FBF3F33033D2
:1035400091FBF2F204FB02320029ACBF4520572068
:10355000DDF80CC08DF81E003E488DF8242091FB4C
:10356000FCFC3D4A91FBF0F391FBF5F50CF1300CBE
:1035700004FB03CC303591FBF2F34FF47A7E3748ED
:1035800004FB035591FBFEF391FBF0F2303304FB97
:1035900002336422AEF5FA6E8DF8273091FBF2F318
:1035A000303391FBFEF204FB02336FF063008DF8C1
:1035B000283091FBF4F391FBF0F2303304FB02333B
:1035C00091FBF9F96FF0090291FBF7F791FBFAFA19
:1035D00091FBF8F8303791FBF6F68DF8293009F1B8
:1035E000300901F1300391FBF2F104FB089804FB70
:1035F000067604FB013404200AF1300A8DF825C058
:103600008DF820A08DF821808DF822608DF826504D
:103610008DF82A40FFF71EFE06A8FFF755FD124B56
:1036200006A81A78114B12491B780BF043FE0520AF
:10363000FFF710FE06A8FFF747FD0FB0BDE8F08FBB
:103640001E46010880969800001F0AFA40420F00AB
:10365000806967FFC0BDF0FF6079FEFFF0D8FFFF13
:1036600018FCFFFF34460108CD1B0020450B00204D
:103670004A4601084C1B002000CA9A3B00E1F505B0
:10368000003665C4A08601000860086170B504209A
:103690000FE01D6853F8046FB54203DD43F8046C76
:1036A0001D6000240132D2B28242F2D1013AD0B27E
:1036B0001CB90B4601240022F6E770BD38B504465C
:1036C0000C4D0AE095F85E31012B02D107200BF07A
:1036D0008EF914F8010C0BF01BFC14F8013B002BC5
:1036E000F0D10BF02FFC0028FBD01E20BDE83840A5
:1036F0000BF07DB9080F002001460020F0B503460D
:103700000C4A06460A2511E02E2C04D189B101335A
:10371000DBB2D4186654D45C6843A4F13007FFB21E
:10372000092F01D8303800190133DBB2D45C002CEA
:10373000EAD1F0BDDD060020224BF0B5224A1D681B
:10374000147810462B195B78013213F00403F7D17B
:103750001D4A0A2105E003B14B4312F8016B303ECC
:103760009B19861A022EF6DC00210A2605E001B11B
:10377000714312F8017B303FC9199042F7D82E2CC3
:1037800012D10130042400220A2706787A4305EB7F
:10379000060C9CF801C01CF0040F02D0303A9219BC
:1037A0000130013CF1D100E00022084806244143E9
:1037B000642000FB02120648B2FBF4F200FB032077
:1037C000F0BD00BF5C000020DD06002040420F007D
:1037D000809698002DE9F843904BC4B293F85E119F
:1037E000042900F21484DFE811F01F00050015021F
:1037F000150205008A4E8B4D8B488C4F96F800C001
:103800004FEA04282A7803783988BCF1080F00F2BF
:10381000F480DFE81CF0E800F90034013B014701C7
:10382000520163017F018A01242C07D1804A0023C1
:103830001370804A1370804A1370C6E02C2C02D09B
:103840002A2C40F087807B4A7C4B127800209854C9
:10385000794A15787A4AE5B91978157047296FD1F0
:10386000597850296CD19978472907D1D9784729B7
:1038700066D11B79412B63D1012308E052295FD126
:10388000D9784D295CD11B79432B59D10223137070
:1038900056E01278012A3AD1022D04D1FFF74CFFED
:1038A000684B18604CE0032D07D11B78532B47D190
:1038B000644B1A6852421A6042E0042D04D1FFF7AB
:1038C0003BFF604B58603BE0052D07D11B78572B21
:1038D00036D15C4B5A6852425A6031E0062D07D10E
:1038E0001A78594B302A94BF002201221A7027E01F
:1038F000072D05D1FFF700FF544BC0B218701FE031
:10390000092D1DD1FFF7F8FE514B80B217E0022AB6
:1039100016D1072D0CD10120FFF7EEFE41F218431E
:1039200058434FF47A73B0FBF3F080B2494B06E092
:10393000082D05D10120FFF7DFFE474B80B218802C
:103940003D4B01353B4A1D7000232A2C137036D1A4
:10395000012127E00D2C414A01D00A2C25D11378F2
:10396000FBB136490A784978A2F13003DBB2092B62
:1039700084BFA2F13703DBB2A1F13002D2B203F06F
:103980000F031B01092A84BFA1F13702D2B202F052
:103990000F029B18264ADBB21178C91A4B4243EB3F
:1039A000010300212D4A11700FE022490B780E2BE4
:1039B00003D82248C45401330B70137823B91C4A2E
:1039C00011784C40147000E000231D4A127812B1A7
:1039D00023490120087023B1A2F10102534243EBB5
:1039E0000203DBB28EE20E48002505700D4802701E
:1039F0000D4A13700D4B198036E086F800C02A700E
:103A000003703980BDE8F883622C054E2A7003707C
:103A1000398027D102233370BDE8F883080F0020D6
:103A2000D1060020A4060020A5060020D406002010
:103A3000AA060020D2060020A9060020DD060020EC
:103A4000DC060020601B0020450B0020CD1B002061
:103A5000281B0020761B0020EA1B0020A606002061
:103A6000ED06002000233370B52C03D1994B1A7852
:103A700001321A70984B00221A80BDE8F8830323A4
:103A8000337039802C700470944B08E0E318DBB27B
:103A900003709B1839802B700421914B31701C707E
:103AA000BDE8F883E318DBB203709B182B708D4BD5
:103AB000052131701C80BDE8F8831B19DBB241EA97
:103AC00008019A18B1F5007FD2B28CD8814806243B
:103AD000047085480270854A137022E0E318DBB257
:103AE00003709B187C4A2B7013883980332B98BF46
:103AF0007F494FF0060C98BFCC5401339BB2138022
:103B0000784A86F800C012889A4240F080820722E4
:103B1000704BB7E1A3427FF466AF082434702A707B
:103B20000370704B1980BDE8F88303700023A24234
:103B30002A703980337040F06A82684B1A78012A03
:103B400040F06582664B1B78032B1CD002D8022BF9
:103B500052D104E0062B2AD0122B4DD13EE0644B0B
:103B60006449986808605868486019694FF47A7326
:103B700091FBF3F1604B89B21980604B1978604B6F
:103B80001970604B37E05A4A537913F0010306D09D
:103B90001379023BDBB2012B8CBF00230123574A70
:103BA000DBB21370002B27D1554A137024E0504A22
:103BB000D37A13F0010306D0937A023BDBB2012BD8
:103BC0008CBF002301234D4ADBB213700BB94C4A62
:103BD0001370474B93F82F204B4B0CE0444B4B4951
:103BE000988A0880996942F2107391FBF3F1484B6F
:103BF00089B21980474B1A70424A137833B145494C
:103C00000B781BB100230B7013700123424A012172
:103C1000117077E1414A424B107858B902290CBF24
:103C2000D021D121DD2C06D11878884203D164201F
:103C3000107000E0D12112781C70082A374B00F078
:103C4000CA8012D8042A00F08A8006D8022A36D008
:103C500070D8012A40F0DB8127E0062A3149324A38
:103C600000F09A8000F2A18084E00C2A00F0EB8042
:103C700007D80A2A2B492C4A00F0CA8000F2D180CA
:103C8000B4E00E2A00F0F380C0F0E5800F2A00F0C7
:103C90000381642A40F0BB8101221A70234A002369
:103CA0001370214A1370BDE8F883202C0CBF022248
:103CB00000221A701C4B1A78A4181C70D3E01C4AFE
:103CC0001460194A117864181470164A0021117092
:103CD0000322C7E0D106002042070020B0060020E2
:103CE000D0060020D4060020A4060020A50600204F
:103CF000F0060020601B0020281B0020CD060020BD
:103D0000450B002048070020CD1B0020761B00201B
:103D1000EA1B002026070020ED060020A806002050
:103D2000CC06002040070020A7060020CE06002079
:103D3000440700208D490A780832D2B20A708C49B3
:103D4000182A0878204404FA02F40870894908689F
:103D500044EA00040C6040F08680042282E0864A37
:103D600000211460814A1170814A1178641814701E
:103D7000052277E008780830C0B20870117818285A
:103D8000214404FA00F411707B4A116844EA0104EA
:103D9000146068D1062265E0784804601078241821
:103DA000147000220A7007225CE008780830C0B264
:103DB000087011781828214404FA00F411706F4A31
:103DC000116844EA010414604DD16421B4FBF1F49C
:103DD0001460082246E06A4A1460654A1178641843
:103DE0001470624A0021117009223BE00878083003
:103DF000C0B2087011781828214404FA00F4117038
:103E00005F4A116844EA010414602CD10A2229E0B7
:103E10005C48046010782418147000220A700B2289
:103E200020E008780830C0B20870117818282144C2
:103E300004FA00F41170534A116844EA0104146052
:103E400011D10C220EE0504A1470494A11786418BE
:103E500014700D2206E04D4A1470454A117864181A
:103E600014700E221A704A4B1A7801320AE048493F
:103E70003F4A0878212808D11278A24201D10F22A6
:103E800000E000221A70BDE8F88313780130E418CE
:103E900014700870BDE8F8833C4B1B78012B3D4B38
:103EA00001D9012200E00022D0291A7008D1314B3B
:103EB0000A221968514319602F4B19684A431A6046
:103EC0002C4B1A68344B1A602B4A12685A602B4BE1
:103ED0001A88324B1A802A4B1A88314B1A80294B88
:103EE0001A680A23B2FBF3F22E4B92B21A80264BC9
:103EF0001A782D4B1A702D4B01221A702C4B002270
:103F00001A7002E0002B00F08280224B29481B78B7
:103F10008BB90378002B76D12749284A0B601360B0
:103F20004B6053608B609360CB60D3600B61136117
:103F30000123037067E00023174C1F4E03701F4DD1
:103F400020683146FFF7A0FB60682946FFF79CFB1D
:103F5000B268002A57D0AB68002B54D0184841886B
:103F6000064679BB226063604DE000BF4007002039
:103F7000A706002044070020B4060020A006002069
:103F80003C070020AC060020240700202507002065
:103F9000CE060020450B0020601B0020281B0020BF
:103FA000761B0020EA1B0020CD1B0020ED06002020
:103FB000A8060020CF060020B80600202807002011
:103FC000901B00202068824220683488CCBFC0EB60
:103FD0000200C2EB000080EAE075A5EBE0750D4839
:103FE000A542C8BF02600B4A406852688342CCBFFA
:103FF000C2EB0302C3EB0202002AB8BF52428A425C
:10400000C4BF044A53600AF0E1FC034B1860BDE8EA
:10401000F88300BF601B0020040F00200C4A0D49EC
:10402000136813B90B6813607047086898420A4B0D
:1040300003D11A7801321A7003E009680020187061
:1040400011601B784B2B02D1102003F031B970475F
:10405000D8060020040F0020EC06002038B5064DDD
:10406000002407200AF0C3FC605D01340AF050FF11
:104070000B2CF6D138BD00BFAC49010870B5174E06
:104080000446002532200AF0B2FCA8590AF03EFF8F
:10409000FA200AF0ACFCB4F5164F0DD003D8B4F5F5
:1040A000964F10D106E0B4F5614F07D0B4F5E13F6B
:1040B00009D105E00A4804E00A4802E00A4800E0A5
:1040C0000A48FFF7FBFA0435142DDBD120460AF02D
:1040D0001DFFC820BDE870400AF089BCE048010817
:1040E000B7490108D9490108FB4901081D4A0108DF
:1040F0002DE9F8433B4F00233B7005464FF4FA602F
:104100000AF075FC0AF062FC00F53A5808F1600804
:10411000354E57E02846354922460AF0ABFE96F860
:104120005E31012B03D049D3032B47D80FE028463B
:10413000FFF7A4FFDFF8D49007200AF058FC14F82A
:10414000090001340AF0E4FEB82CF5D136E0DFF8BE
:10415000C09054F809000AF0D9FEC8200AF047FCC4
:1041600004342348FFF7AAFA142CF2D14FF461402B
:104170000AF0CCFEC8200AF03AFC1E48FFF79EFA6F
:10418000C8200AF034FC1C48FFF798FAC8200AF04F
:104190002EFC1A48FFF792FAC8200AF028FC1848AB
:1041A000FFF78CFAC8200AF022FC1648FFF786FABF
:1041B000C8200AF01CFC1448FFF780FA4FF47A700C
:1041C0000AF015FC3C781CB90AF000FC4045A1D36C
:1041D000044B1B7823B11020BDE8F84303F060B80E
:1041E000BDE8F883ED060020080F0020D537000851
:1041F000404A0108544A01086D4A01087F4A0108F3
:104200008F4A01089F4A0108AF4A0108F448010893
:10421000E048010810B504460AF0BEFB0E4A0F49FB
:1042200013681060C31A41F2883293420B600C4B42
:1042300001D900221A701B780A4AE4B2142BD45414
:1042400006D1094B01221A70084B00221A8010BDBA
:10425000034A0133137010BD4C070020780700207B
:1042600074070020DF0E002050070020620B0020A2
:1042700002494FF4E13001220AF0FCBD154200086A
:10428000014B1878704700BF500700200000000065
:10429000F8B51F4B07461B781BB31E4E3378A82B6F
:1042A0001CD1F47CD4B91C4D6300DA1C0433B05C1F
:1042B000F35C013403EB0020FCF796F810A3D3E97C
:1042C0000023FCF731FA10A3D3E90023FBF74EFFDC
:1042D000FCF79AFB082C45F8040FE5D10C4B0022A3
:1042E0001A70072F03D90D4BB3F8F000F8BD0C4B33
:1042F000DA5D0C4B33F82200F8BD00BFAFF300804D
:104300009A99999999991940000000000070774096
:1043100050070020DF0E002050070020080F00206B
:10432000BF4A010854070020124B012210B51A7031
:1043300004460AF031FB104A104913681060C31A92
:1043400041F2883293420B600D4B01D900221A7062
:104350001B780C4AE4B20F2BD45406D10A4B01222D
:104360001A700A4B00221A8010BD054A01331370DF
:1043700010BD00BF9D070020A0070020A807002057
:10438000AC070020F40E00209C070020620B0020E8
:10439000094B0A4A93F8ED10094B19B1032111702A
:1043A000072202E002211170032206491A704FF41D
:1043B000E13001220AF05EBD080F00207C070020DA
:1043C000A407002029430008014B1878704700BF5C
:1043D0009C0700201E4BF0B51B78EBB11D4B1E4A0D
:1043E0001E781E4B1E4C1D780223D15C03F1010C7C
:1043F00041FA06F101F00F01062907D8D75C12F83F
:104400000CC02F400CEB072744F821700233102B0F
:10441000EBD10F4B00221A700628124B02D8124A19
:10442000127812B9B3F8F000F0BD93F8ED101B1834
:104430000B4A93F8DC3052F8230021B1400800F514
:10444000777080B2F0BD00F5777080B2F0BD00BF2C
:104450009C0700207C070020F40E0020A407002009
:1044600080070020080F00209D07002044F25063C1
:1044700002E0A0F50C40A0389842FADC03E000F519
:104480000C40A03000E0024B9842F8DB704700BFC0
:10449000B1B9FFFF000000002DE9F843244E984613
:1044A000337807460D461446B3B9224B187CFCF707
:1044B000D1FBFBF7BBFF1CA3D3E90023FCF70AF8F1
:1044C0000B4602461C490020FCF72EF9FCF7BCFA0B
:1044D0001A4B186001233370184B28461968FCF7F3
:1044E00009FB01462846FCF7C1FCA66861688146C5
:1044F0003846FCF7FDFA2946FCF7B8FC3146FCF7D4
:10450000F7FA01464846FCF7FDFB01463046FCF74A
:10451000F1FA6760A060D8F80810FCF7F3FBBDE87B
:10452000F88300BFAFF30080182D4454FB210940ED
:1045300060080020080F00200000E03F0408002071
:104540002DE9F04F002485B0644E03902546039A70
:10455000002A45D0A759002127F0004738464FF0E0
:104560000108FCF763FD08B14FF000085C4B18F040
:10457000FF0F08BF4FF07E5793F86A01FCF76AFB04
:104580003946FCF773FC564A074692F86D01FCF772
:1045900061FB5449FCF7B6FB804638460DF0BAF88B
:1045A0004146FCF74DFD70B938460DF0B3F84FF0B9
:1045B0007E51FCF763FD20B938460DF0ABF880461C
:1045C00001E04FF07E58484BB3F90000FCF746FB82
:1045D0004146FCF797FBFCF75BFD80B2009005E0DD
:1045E000424A13880A2253439BB20093404BDFF8A0
:1045F0001881E758D8F800103846FCF783FB4FF0D5
:104600000C093C4B09FB05F91B68D8F80410029013
:10461000DFF8F8A038460193FCF774FB0199FCF72A
:1046200071FB5AF80910FCF765FAD8F80C800746B8
:1046300008F1004B5946FCF703FD30B938464146B6
:10464000FCF71CFD10B1474600E05F463946029872
:104650004AF80970FCF74EFAA159FCF749FA2649C5
:104660008146FCF7EDFC38B948462449FCF706FDC5
:1046700020B1DFF8889001E0DFF87C90DFF89080CF
:104680004846D8F80010FCF73DFB1D4B0C2202FBFE
:1046900005320746434601994846FFF7FDFE0146AD
:1046A0003846FCF727FAFCF7F3FC009B1AB251429C
:1046B00003B28B4201DA084603E09342CCBF1046B6
:1046C0001846FCF7CBFA0F4B0135E0500434082CA8
:1046D0007FF43DAF05B0BDE8F08F00BFB00800200B
:1046E000080F00200AD7233C0200002022000020EF
:1046F0008C1A0020840A002000007AC400007A444A
:104700000C080020341B002038080020B0070020CF
:1047100048080020784B2DE9F04F1C68774B89B092
:104720001E680590A61B3046FFF7A0FE002841F248
:104730009313D8BF4042984237DC714B0021D3F825
:1047400084512846FCF772FC00282ED13046FCF735
:1047500085FA6C49FCF7D6FA0CF0C8FD6A4B0646A0
:104760001868FCF777FA01463046FCF7CBFA294681
:10477000FCF7C8FAFCF78CFC40F6B8339842A8BFA7
:104780001846624B9842ACBF2418E41802E004F5C6
:104790000C44A034002CFADB03E0A4F50C44A03C4C
:1047A00001E048F69F439C42F7DC594B00251C6012
:1047B000574B584E1868C0F50C502830FCF74EFA8D
:1047C0005049FCF79FFA04460CF05CFD0790204628
:1047D0000CF08CFD2C46069001950598FCF73AFAF2
:1047E00004F118036A469958FCF78CFA4A4A0746BE
:1047F000A158FCF77DF949498046FCF721FC38B9FE
:1048000040464749FCF73AFC20B1DFF8148101E04B
:10481000DFF80881434B40461968FCF773FA019AA8
:104820000C2353433F4A0490516802934046F318C7
:104830000393FCF767FA3C4B1968FCF763FA029B99
:10484000F158FCF757F9374A8146D2F80CA00AF123
:10485000004B5946FCF7F4FB30B948465146FCF78B
:104860000DFC10B1D14600E0D946029B494646F8FE
:1048700003900498FCF73EF92B4B8146196840469B
:10488000284B039AFFF708FE01464846FCF732F929
:10489000264B8046E0501A4B93F88191B9F1000FF6
:1048A0001CD039463846FCF72DFA82464846FCF7BC
:1048B000D1F91F49FCF726FA01465046FCF722FAC7
:1048C000002181463846FCF7BBFB08B109F10049DD
:1048D00040464946FCF70EF9144BE050AA59154BD7
:1048E0000434EA50019A0C350132082C01927FF40D
:1048F00074AF09B0BDE8F08F801A0020841A002040
:10490000080F0020D3023739781A002048F4FFFF3F
:10491000741A0020C80700203008002000007AC464
:1049200000007A44E8070020840A0020341B00209D
:1049300017B7D1380C080020F8B51B4B1B4A197863
:10494000B2F87E511A4B39B992F880211C68B4FB39
:10495000F2F4A54206D303E01C68A54238BF2C46FA
:10496000A4B200E02C46134E20463768FCF776F9D7
:104970003946FCF783FB60B10F4B10491868FCF710
:10498000C1F901463846FCF7B5F83060FCF7A6FBE4
:1049900084B2064B93F87C01844203D3AC4234BF0B
:1049A00020462846F8BD00BFF91A0020080F002055
:1049B000781A0020881A0020840A00200000C842CB
:1049C0002DE9F041374C384D607DFCF743F937490C
:1049D000FCF74CFA2860E07FFCF73CF93449FCF71F
:1049E00045FA94F86B61686019200027704384F8D9
:1049F0002970FCF733F98046E860A07DFCF72AF9BE
:104A00002C49FCF733FA2C4D286094F82A00FCF767
:104A100021F92A49FCF72AFAC5F80C80A860E07D44
:104A200084F82070FCF716F92549FCF71FFA254D8C
:104A3000286094F82100FCF70DF92049FCF716FADC
:104A4000686094F82B00FCF705F91C49FCF70EFA96
:104A50001D4A1E4BA8601A601D4A1E4BC5F80C80EB
:104A60001A601D4B40F21A225F800A2707FB06F5E9
:104A70001A801A4B94F869011D80FCF7EBF818496D
:104A8000FCF740F994F86C21164BB2421860164BB3
:104A900003D97D431D80BDE8F08164214A431A801B
:104AA000BDE8F081080F0020380800200000C8424F
:104AB00000409C450000A0404808002000007A44C7
:104AC00000002041E807002051E0EF30E00700201F
:104AD000FDF7653FFC070020901B0020220000200E
:104AE0000AD7233C5C1B0020020000202DE9F84F70
:104AF0000022DFF8A4B0DFF8A4A0DFF8A490DFF86C
:104B0000A480DFF8A4C0DFF8A4E01A4F1A4E1046C4
:104B1000002352F80A10194D42F80B10184942F8B8
:104B2000093053500C2141436C186B50154D636094
:104B3000A3606B506C18144D01306360A36042F8A1
:104B400008306C1842F80C3042F80E30D3519351B3
:104B5000043202286B506360A360DAD10B4B93F8E8
:104B60007C01FCF777F80A4B00221860094B1A7099
:104B7000BDE8F88FA00A00204C0B0020B0070020F1
:104B8000280800200C080020C8070020080F00207B
:104B9000881A0020F91A0020580800204C1B002019
:104BA000B0080020300800208C1A0020341B0020A0
:104BB000064BDA7932B99A7932B9187A003018BFCF
:104BC0000120704701207047012070471A1B002008
:104BD00008B5084B1868084B1B68C01AFFF746FC5D
:104BE00042F210730028B8BF40429842D4BF002060
:104BF000012008BD801A0020841A002070B51B4BCC
:104C000008B100221A701D78002D2ED1184B18689B
:104C100058B3164B01241C70FCF720F8154B164EA8
:104C20001968FCF76FF820F000400CF02BFB002116
:104C30003060FCF7FBF900B12C4614F0FF0F08BF01
:104C40000E4B0F4908BF33603068FCF75BF8014634
:104C50004FF07E50FCF70AF90A4B0B495860FCF7FD
:104C600051F8FCF73BFA094B588070BDF80700205B
:104C70004C1B0020E0070020240800207DC3E43AFC
:104C80002C7D8E3FFC07002000001644901B002066
:104C900070B50D4604460020FFF7B0FF2868D0B17C
:104CA0002668C6B10E4A5368ABB115689DB1C01AEB
:104CB000FBF7D4FF0B49FCF725F80B4B0B4C19689D
:104CC000FCF720F86060701BFBF7C8FF0549FCF794
:104CD00019F8206070BD054B00225A601A6070BD43
:104CE0004C1B00202C7D8E3F240800208C1A0020B5
:104CF0002DE9F84F9846036804460E461546002BEA
:104D000000F0A580554F3B68002B00F0A0800B6899
:104D1000002B00F09C807B68002B00F09880002026
:104D2000FFF76CFF3B682068C01AFBF797FF7B68B2
:104D300081463068C01AFBF791FF494B0646196857
:104D4000FBF7E0FF494682464846FBF7DBFF51464A
:104D500081465046FBF7D6FF01464846FBF7CAFEA0
:104D60000CF0D8FC3F49FBF7CDFFFCF7B7F93E4B01
:104D700028601D6830462946FBF7C4FF06463868A0
:104D8000FBF76CFF2946FBF7BDFF07462068FBF7E2
:104D900065FF2946FBF7B6FF81460CF073FA04461F
:104DA00030460CF0A3FA2146FBF7ACFF0546384627
:104DB0000CF068FA834648460CF098FA824638466A
:104DC0000CF094FA814630460CF05CFA51460746E6
:104DD0005846FBF797FF214606464846FBF792FFE9
:104DE0003946FBF78FFF01463046FBF781FE04464C
:104DF000214628460CF08CFC1C49FBF783FFFCF78E
:104E000047F91B4B984216DB214628460CF080FCE4
:104E10001649FBF777FFFCF73BF944F250639842E1
:104E200009DC214628460CF073FC1049FBF76AFFA9
:104E3000FCF72EF900E018460028C8F800000ADA4E
:104E400000F50C40A030C8F80000BDE8F88F002342
:104E50002B60C8F80030BDE8F88F00BF4C1B002065
:104E6000240800202C7D8E3FE0070020A00CB345D5
:104E7000B0B9FFFF2DE9F84F0020FFF7BFFE5949F9
:104E8000594A0C6813680968E41A116000F08280BE
:104E9000564B1A78D2F1010238BF00221A70544BD7
:104EA0000022B4F5C87F1A7074D25249524A4F6832
:104EB00057600E681660514A1188514A1180514A54
:104EC0001188514A118001221A70A4F10B03122B90
:104ED00007D92046FBF7BEFE01464C48FBF7C6FF4C
:104EE00000E04B48A4F12903122BA4F1510398BF11
:104EF0004848262BA4F1B50398BF4748262B98BFF6
:104F00004648E73C262C98BF4FF081404449FBF7C8
:104F1000F9FE444D80466868434C381AFBF79EFE04
:104F20004146FBF7EFFE414B1968FBF7EBFE606073
:104F300081462868301AFBF791FE4146FBF7E2FEF6
:104F40003B4B2E60D3F860612060824631464FF0C3
:104F50007E50FBF7CDFD374C804621683046FBF78D
:104F6000D1FE414683465046FBF7CCFE01465846EB
:104F7000FBF7C0FD616820606F603046FBF7C2FE42
:104F8000414605464846FBF7BDFE01462846FBF76D
:104F9000B1FD606009F01AFD124B1B68C01AB0F534
:104FA000FA7F134B01D900221A701B78B3B1214E3E
:104FB0001D4D30682968FBF79DFD4FF07C51FBF7D4
:104FC000A1FE1D4C696820607068FBF793FD4FF0EF
:104FD0007C51FBF797FE6060BDE8F88FBDE8F84FA5
:104FE000FFF784BD040F0020E4070020520A0020D0
:104FF00008080020601B00204C1B0020761B0020AE
:105000003C1B0020EA1B0020F809002000007A4425
:10501000000048420000A041000020410000A040E4
:105020002C7D8E3F580800202808002024080020EE
:10503000080F0020B00800203008002010B503E061
:1050400020460B49FBF754FD0A490446FCF716F8C5
:105050000028F5D104E020460549FBF74BFD044646
:1050600020460549FBF7F6FF0028F4D1204610BD85
:105070000000B44300003443000034C3034B9222C9
:105080001A80034B0022A3F84222704762080020D6
:10509000080F0020164B70B51A8804460D461E46B0
:1050A0000AB9FFF7EBFF134A3088B2F84232834265
:1050B0001AD22488A04219DDC8B12401A4B200216B
:1050C000A2186C5C50180131102980F84442F8D1C4
:1050D000084A0133A2F8423209F078FC064B00F589
:1050E0007A701860012070BD002070BD002070BD76
:1050F00062080020080F0020380B00200B4A0088AF
:10510000B2F8423283420DDD73B1000180B2002358
:105110008218D01890F84402C8540133102BF8D1EB
:10512000012070470020704718467047080F002084
:105130001A481B49026800608A4219D0002103E026
:10514000184B5B58435004311748184B42189A4289
:10515000F6D3174A02E0002342F8043B154B9A426B
:10516000F9D30BF021F80EF045FE03F099FCFEE7B1
:10517000114E124830601248016821F070610160E0
:10518000410201600F4C182020600F490F48086051
:105190000F48D0F800D0406800470000F04F0020D2
:1051A000EFBEADDEE07C0108000000208C04002092
:1051B00090040020E81E00201810024009000000A2
:1051C00004000140140C0140000C014044344344ED
:1051D00000F0FF1FFEE7000038B5124B124D1A78A1
:1051E000124C5AB9226829683232914219D30120EF
:1051F000187009F023FC2B68236038BD22688018E2
:105200002A6882420DD30020187009F017FC2B6821
:105210002360074B1A780AB1013A1A70054B012234
:105220001A7038BD64080020180A002068080020A1
:10523000660800206508002037B5204D8DF807303E
:105240002B788DF8051002A98DF806208DF8040042
:10525000CA1812F8042C443AD2B20A2A9ABF184942
:1052600031F812403224022B03D814B12046FFF744
:10527000B3FF2B78022B0BD9124B134A1B68126811
:105280001B1B9A4204D20D4A002313700F4A13705D
:105290000F4B1A78194602B974B9084B1A78022ACA
:1052A00001D801321A700B4B00200870187003B03F
:1052B000BDE8304009F0C2BB03B030BD6708002034
:1052C000C84A0108180A0020680800206608002063
:1052D000650800206408002070B50546802001F0B4
:1052E000F5FF20B33A48052290F8FA10394E02FB38
:1052F00001F33488A4B29C420DDD374C64785CB174
:1053000090F8FB00348809184A43A4B29442D4BFF1
:105310000124022400E000242E4A128892B29A420C
:1053200006DD2D4B5B78002B08BF022400E004460D
:10533000102001F0ABFF78B1284B1B784BB9284BFC
:105340009A7942B9DA7932B9187A003018BF012057
:1053500002E0002000E00120022C02D14C204E216E
:1053600019E03CB14D2153204C220B46BDE8704062
:10537000FFF762BF18B1532001464E2205E0184BDB
:10538000DB7A23B15320014602464D23EEE7042D7C
:1053900003D153204D210A4609E0022D03D15320A9
:1053A00001464D2203E025B153204D214E224423D6
:1053B000DCE70C4B1B7823B13220BDE87040FFF7CF
:1053C0000BBF094B28461D70BDE8704009F036BB85
:1053D000080F0020620B00201A1B0020450B002044
:1053E000B41B0020660800206408002070B5B0FBE4
:1053F000F2F4064615461CB12046FFF7F7FF0146BA
:1054000005FB1464024B08461B5D00F8013B70BDB0
:10541000444C0108000000002DE9F84F03780446D1
:105420000130202BFAD0092BF8D02D2B05D10446C2
:105430004FF0000ADFF878B106E02B2BDFF86CB1F3
:1054400008BF04464FF0000A4FF000084FF0000973
:1054500012E00022544B40464946FBF73BF8064613
:1054600028460F46FAF7D0FF02460B46304639462B
:10547000FAF77EFE80468946234614F8012BA2F1F6
:105480003005E9B20929E4D92E2A21D11A4600268D
:10549000454F16E0FAF7B8FF32463B46FBF744F9B2
:1054A00002460B4640464946FAF762FE0022804615
:1054B0008946304639463C4BFBF70CF822460646F7
:1054C0000F465078541C3038C2B2092A2346E1D91D
:1054D0001A78652A01D0452A4ED15A782D2A02D150
:1054E0000233012505E02B2A01D0013300E002330D
:1054F000002500240A2102E001FB0424303C13F8BB
:10550000012BA2F13000C0B20928F5D9B4F59A7F79
:1055100028BF4FF49A740022244B09E01046194624
:105520001DA3D3E90023FAF7D5FF323C02460B4610
:10553000312CF3D8264609E01046194618A3D3E9C2
:105540000023FAF7C7FF083C02460B46072CF3D8A6
:1055500006F0070408E0104619460022124BFAF73D
:10556000B9FF013C02460B46002CF4D135B1404650
:105570004946FBF7D9F805E00C4B00224046494666
:10558000FAF7A8FF02460B4650465946FAF7A2FF23
:10559000FBF75AFABDE8F88F9A647EC50E1B514A94
:1055A0000000000084D79741000024400000F03F35
:1055B0000000F0BFAFF30080F8B50279034606693A
:1055C000C468052A45D8DFE802F003030E0E1A2549
:1055D0009B681A785118A14203DBB142B4BF0C4654
:1055E00034461C70F8BD9B68B3F900205118A142E5
:1055F00003DBB142B4BF0C4634461C80F8BD9B6847
:105600001A688918A14203DBB142B4BF0C46344684
:105610001C60F8BD9F680846FBF720FB0D49FBF7AF
:1056200025FC3968FBF766FA05462046FBF716FBB2
:10563000044621462846FBF703FD40B93046FBF7F8
:105640000DFB044621462846FBF718FD00B1254610
:105650003D60F8BD00007A44024B01221870024BF5
:105660001A707047780800208008002010B50D4C93
:105670000D4809F001FE61880C48C1F5406209F04F
:10568000FBFD61880A48A1F51261043909F0F4FDB7
:10569000B4F84222074840F624119223BDE8104096
:1056A00009F0EABD080F0020694C0108734C01089D
:1056B000924C0108A14C010808B5FFF7D7FFFFF78E
:1056C000DDFC034809F0D8FDBDE80840FFF7CEBF78
:1056D000CE4C010838B50546582455F8040BFBF7A5
:1056E000D7FC214602460134024809F0C5FD5B2C77
:1056F000F3D138BDDC4C0108014809F0B1BB00BF53
:10570000EC4C0108014809F0ABBB00BF1E4D01087D
:1057100038B5074809F0A4FB064D00242B19615940
:1057200005485A680C3409F0A7FDCC2CF6D138BDD9
:105730003C4D0108644B0108544D0108A24B2DE972
:10574000F74319684FF47A73B1FBF3F19F4BA0480C
:105750001A78A04BA04E1B7809F08EFD01F0B0FD29
:105760009E4B074619689E4B9E48B1FBF3F109F02A
:1057700083FD0024012556F8241049B105FA04F3ED
:105780003B4202D0984809F077FD0134E4B2F2E7D9
:10579000964B1868FBF77CFC04B209F0D3F821465D
:1057A0000246934809F068FDFFF760FF914809F051
:1057B00063FD914809F060FD904B1B780BB1904858
:1057C00000E0904809F058FD8F4C904809F054FDD6
:1057D0008F48FFF77FFF94F8363033B18D4809F0DA
:1057E0004BFD04F13800FFF775FF8B4B1868FBF792
:1057F0004FFC0146894809F03FFD012001F046FDBC
:10580000F0B1874B87481A78874B7F4C53F82210AA
:1058100009F032FD854809F02FFD94F8603063B13E
:10582000834809F029FD04F14400FFF753FFB4F960
:105830005010804809F020FD02E07F4809F010FB7D
:10584000042001F023FD002830D07C486E4C09F084
:1058500013FD764809F010FD94F86130C3B1744827
:1058600009F00AFD04F15400FFF734FF744D582489
:10587000744955F8040FFBF745FAFBF709FC21467C
:1058800002460134704809F0F7FC5B2CF0D102E0CD
:10589000694809F0E5FA6D4809F0EEFC6C4B1B789D
:1058A0000BB16C4800E06C4809F0E6FC022001F006
:1058B000EDFC90B1694809F0DFFC694B1B79012BC5
:1058C0000CBF6848684809F0D7FC684B1868FBF7BC
:1058D000DFFB0146514809F0CFFC654809F0CCFCDC
:1058E000022001F0D3FC18B9102001F0CFFC70B3F6
:1058F000102001F0CBFCC0B1434C5E4809F0BCFC69
:10590000B4F83C02FBF7A6F95B49FBF7FBF9FBF7A0
:10591000E5FBB4F83A1285B2584809F0ADFCB4F88A
:105920003C1257482A4609F0A7FC022001F0AEFCC1
:1059300068B1354C534809F09FFCB4F93E12524807
:1059400009F09AFCB4F94012504809F095FC2E4D2C
:105950004F4809F091FCB5F80421B5F80A31B5F8C3
:1059600002114C4809F088FCB5F80231B5F8047111
:10597000FF1A642397FBF3F7474BBFB21A78EAB1DB
:10598000464A474C16789946082E28BF082600221A
:10599000A8460FE034F8023FB8F80211551C591A16
:1059A00091FBF7F112F809203E480091294609F0D1
:1059B00063FC2A46D3B2B342ECD377E03A4803B053
:1059C000BDE8F04309F058BC180A0020741B002001
:1059D0005D4D0108200000201460010840000020F7
:1059E00040420F00964D0108ED5301081C000020B5
:1059F000B44D0108D94D0108E24D0108800B00208B
:105A0000EA4D0108F34D0108080F0020F74D010889
:105A1000F81B0020004E0108001B00200B4E01085F
:105A2000A90B0020164E0108304C0108214E010838
:105A30002C4E0108374E0108444E0108534E010810
:105A4000101C002000007A44634E0108764E0108C5
:105A5000DC0E0020824E01087E4E0108854E0108B2
:105A6000301C00208F4E0108964E0108FC1A0020C1
:105A70009D4E0108A84E0108BC74133DAF4E0108AD
:105A8000C04E0108DD4E0108E64E0108FA4E01083D
:105A90000E4F0108194F0108EC1B0020CE1B0020FF
:105AA000081B00203F4F0108804F010803B0BDE8EC
:105AB000F08300BF2DE9F04107460EF045FBC6B26A
:105AC0003EB91D4B1D485A791D4B013A53F822101F
:105AD0002BE038461B4932460EF066FB044670B98F
